:020000040800F2
:1000000038B00120C1010008BD070008B50700088D
:10001000B907000895070008810A000800000000E1
:10002000000000000000000000000000C5070008FC
:100030009907000800000000C1070008C907000870
:10004000DB010008DB010008DB010008DB01000820
:10005000DB010008DB0100089D070008DB01000848
:10006000DB010008DB010008DB010008DB01000800
:10007000DB010008DB010008DB010008DB010008F0
:10008000DB010008DB010008DB010008DB010008E0
:10009000DB010008DB010008DB010008DB010008D0
:1000A000DB010008DB010008DB010008DB010008C0
:1000B000DB010008DB010008DB010008DB010008B0
:1000C000DB010008DB010008DB010008DB010008A0
:1000D000DB010008DB010008DB010008DB01000890
:1000E000DB010008DB010008DB010008DB01000880
:1000F000DB010008DB010008DB010008DB01000870
:10010000DB010008DB010008DB010008DB0100085F
:10011000DB010008DB010008DB010008DB0100084F
:10012000DB010008DB010008DB010008DB0100083F
:10013000DB010008DB010008DB010008DB0100082F
:10014000DB010008DB010008DB010008DB0100081F
:10015000DB010008DB010008DB010008DB0100080F
:10016000DB010008DB010008DB010008DB010008FF
:10017000DB010008DB010008DB01000800000000D3
:10018000DB010008DB010008DB010008DB010008DF
:10019000DB010008DB010008DB01000800000000B3
:1001A000DB010008DB010008DB010008DFF80CD0F0
:1001B00000F04AFA00480047F125000838B0012055
:1001C0000648804706480047FEE7FEE7FEE7FEE7F1
:1001D000FEE7FEE7FEE7FEE7FEE7FEE75908000858
:1001E000AD01000810B5431A934209D2831888184C
:1001F00003E010F8011D03F8011D521EF9D210BDD5
:1002000040EA01039B0703D009E008C9121F08C098
:10021000042AFAD203E011F8013B00F8013B521E18
:10022000F9D210BDD2B201E000F8012B491EFBD279
:1002300070470022F6E710B513460A4604461946F1
:10024000FFF7F0FF204610BD30B50B4601460020F9
:100250002022012409E021FA02F59D4205D303FA88
:1002600002F5491B04FA02F52844151EA2F1010209
:10027000F1DC30BD2DE9F05F0546002092469B463B
:1002800088460646814640241BE0284641464746AC
:10029000224600F000FA53465A46C01A914110D344
:1002A00011461846224600F0E7F92D1A67EB0108BF
:1002B0004F4622460120002100F0DEF917EB00092D
:1002C0004E41201EA4F10104DFDC484631462A4697
:1002D0004346BDE8F09F2DE9FE4F804681EA0300CA
:1002E000C00F0C46009021F0004123F00045B8EB10
:1002F0000200A94105D24046214690461C460B46C5
:10030000024623F00040104347D0270DC7F30A00F0
:10031000C3F30A510290401A019040286BDAC3F3EC
:10032000130040F4801B0098924620B10023D2EBCA
:10033000030A63EB0B0B01985946C0F1400250468B
:1003400000F09AF906460D4650465946019A00F0CB
:10035000B2F910EB08006141002487EA115284EAE7
:10036000E7731A4340D0009A62B3019A012A4FEA18
:10037000075215DC001B61EB02014FF0004202EA5C
:100380000752CDE90042001C41F5801132462B4650
:1003900000F0B2F903B0BDE8F08F40462146F9E71E
:1003A000001B61EB0201001C41F5801300185B414A
:1003B0002018A2F5001747EB030140EAD570B619E3
:1003C0006D4111E06D084FEA360645EAC0754FEA07
:1003D0000752001B61EB0201001C41F58011490826
:1003E0004FEA30000019514132462B4603B0BDE8B8
:1003F000F04F00F072B90098012240000023D0EBCA
:10040000020263EBE073009821464FEAE074B8EB18
:10041000000061EB0401E9E783F000435BE781F052
:10042000004158E72DE9FE4F81EA030404F000443F
:1004300021F0004100944FF0000B23F0004350EAFC
:1004400001045ED052EA03045BD0C3F30A54C1F343
:100450000A552C44A4F2F3340194A0FB0254C1F3D6
:10046000130141F48011C3F3130343F4801301FB20
:10047000024400FB034E840A970A44EA815447EA87
:100480008357A4FB076802958D0A05FB07854FEA91
:10049000932C04FB0C542705029D4FEA065847EAAB
:1004A0001637B5EB08056EEB070C870E920E47EA80
:1004B000811742EA8312A7FB0201B6EB0B0164EB42
:1004C00000042B0D43EA0C335E1844EB1C50DA4653
:1004D0005146E7FB0201C5F313044FEA0B3343EA2D
:1004E00014534FEA0432019C43EA0603A4F10C04BE
:1004F0000294009CCDE900B400F0FEF803B0BDE822
:10050000F08F00200146F9E72DE9F04D81EA030460
:1005100004F0004B21F0004514464FF0000A23F090
:10052000004150EA050220D054EA01021DD0C5F373
:100530000A570246C5F31303C1F31300C1F30A5669
:1005400040F4801543F48013A7EB0608101BD64631
:1005500008F2FD3873EB050002D308F1010801E051
:1005600092185B41B8F1000F03DA00200146BDE8A4
:10057000F08D00204FF48011064684460EE0171BD4
:1005800073EB050705D3121B63EB050306434CEA27
:10059000010C49084FEA300092185B4150EA01070C
:1005A000EDD152EA030012D082EA040083EA050189
:1005B000084305D0101BAB4106D20122002306E000
:1005C00000224FF0004302E06FF0010253101AEBDB
:1005D00006004CEB085110EB0A0041EB0B01BDE8A3
:1005E000F04D00F07AB8C1F30A52C1F3130140F2A2
:1005F000FF3341F480119A4202DA0020014670472D
:1006000040F233439A42A2F2334202DC524200F0FB
:1006100042B800F031B8000030B5041E71F100049A
:1006200004DB4FF00044404264EB0101141E73F1FF
:10063000000405DB1C464FF00043524263EB040309
:10064000994208BF904230BD1CB509480090094846
:1006500001900546009C06E0E06840F0010394E844
:10066000070098471034AC42F6D3FFF7A3FD000013
:10067000E836000818370008202A04DB203A00FA80
:1006800002F1002070479140C2F1200320FA03F3E9
:10069000194390407047202A04DB203A21FA02F0E7
:1006A0000021704721FA02F3D040C2F120029140AC
:1006B000084319467047202A06DBCB17203A41FA37
:1006C00002F043EAE07306E041FA02F3D040C2F1DF
:1006D0002002914008431946704710B5141E73F16B
:1006E000000408DA401C41F1000192185B411A43F2
:1006F00001D120F0010010BD2DE9F04D92469B463E
:1007000011B1B1FA81F202E0B0FA80F220329046E3
:10071000FFF7B2FF04460F4640EA0A0041EA0B0128
:1007200053465A46084313D0114653EA010019D0E4
:10073000C8F140025046FFF7AEFF05460E46504650
:1007400059464246FFF798FF084305D0012004E0D0
:1007500020463946BDE8F08D0020054346EAE076A4
:100760002C4337430A986305E40AA0EB08000022F3
:10077000FD0A44EA47540A3002D500200146E9E761
:10078000010510196941DDE9084500196941BDE815
:10079000F04DA2E7FEE70000FEE7000080B5012073
:1007A00001F096FE002808BF80BD0120BDE8804012
:1007B00001F088BEFEE70000FEE70000FEE7000053
:1007C000FEE70000FEE7000001F01ABE80B543F628
:1007D0000400C4F202004168C1F3810242F2004108
:1007E000022AC0F2F40106D0012A1ED147F64001C8
:1007F000C0F27D1119E00268036802F03F0EC3F3F6
:10080000881C03680268C3F30143520247F64002A2
:10081000C0F27D1258BF0A46B2FBFEF2022101EB84
:10082000430102FB0CF2B2FBF1F140F20002C2F212
:1008300000021160406804A1C0F30310085C116855
:1008400021FA00F0106080BD0000000000000000F0
:10085000010203040607080982B04EF68851CEF261
:1008600000010A6843F6080042F47002C4F2020074
:100870000A6050F8081C41F0010140F8081C00BF54
:1008800050F8081C8907FBD5016801F00C01082904
:1008900066D100210191019A4F2A05D8019A0132AF
:1008A0000192019A502AF9D302680092009A22F02C
:1008B000F0020092009A42F080020092009A0260D8
:1008C000019101994F2905D80199013101910199AF
:1008D0005029F9D301680091009921F0F0010091AD
:1008E000009941F09001009100990160002101916F
:1008F000019A4F2A06D800BF019A01320192019A4B
:10090000502AF9D302680092009A22F0F002009275
:10091000009A42F0A0020092009A026001910199AF
:100920004F2905D801990131019101995029F9D335
:1009300001680091009921F0F0010091009941F0C7
:10094000B0010091009901600021019101994F29A6
:1009500006D800BF01990131019101995029F9D3BD
:1009600001684FF0000C21F003010160CDF804C0D4
:10097000019A12097C2A06D8019A01320192019A41
:10098000B2F5FA6FF8D350F8082C4FF6FF73CFF694
:10099000F6631A4040F8082C50F8082C22F4802204
:1009A00040F8082CC0F800C0026843F21002C2F2FE
:1009B000004240F8042CC0F804C050F8082C42F45F
:1009C000803240F8082C4FF6FE7200BF50F8081C29
:1009D000013A4CF10003890302D4002BF6D100BF89
:1009E00050F8081C8903FBD5826B47F2000142F0E6
:1009F0008052C4F2000182630A6842F440420A60F5
:100A000002680260026842F400420260026842F436
:100A1000A052026047F61902C0F6402240F8042CAA
:100A200050F8082C42F0807240F8082C50F8082C3E
:100A30009201FBD50A6842F480320A604A68D20308
:100A4000FCD50A6842F400320A6000BF4A6892038B
:100A5000FCD501680191019921F0030101910199EF
:100A600041F0020101910199016000BF016809078D
:100A7000FCD54FF00060002102B001F05BBE000029
:100A8000FEE700004EF60C50BFF34F8FCEF2000091
:100A90000168042201F4E061C0F2FA5211430160DE
:100AA000BFF34F8F00BFFDE72DE9F047ADF5007DA7
:100AB000044600684CF23C3A48F220374CF2C33905
:100AC000C5F6A52A41F20008CEF6B857CAF2A559D4
:100AD0005045C0F601082BD1D4F8FC00484527D179
:100AE0006068B0F1011F23D16069404520D1A06941
:100AF00008F5802188421BD1E068B0F5003F17D887
:100B00004FF0FF30002100BF625C5040082200BF60
:100B1000034687EA5000DD0708BF5808013AF7D1BD
:100B20000131F829F0D1D4F8F8104840013037D01D
:100B30006D4628464FF48071FFF77BFB4FF00110A4
:100B400008F580210190002006914FF0FF31CDF88B
:100B500000A00290CDF814800A90CDF8FC9000BF60
:100B60002A5C5140082200BF0B4687EA5101DE078C
:100B700008BF5908013AF7D10130F828F0D1C8432D
:100B800004F108023E9007CA636A0DF1080C8CE874
:100B90000700694620464FF480720993FFF722FB55
:100BA0004FF0011048F21805C4E900A008F58020B4
:100BB000C2F201050021C4E90580C0F60101284602
:100BC0004FF48052C4F8FC90FFF70CFB40AE304667
:100BD00021464FF48072FFF705FB4FF0FF300021F4
:100BE000725C5040082200BF034687EA5000DC07D1
:100BF00008BF5808013AF7D10131F829F0D1C043B4
:100C000040AC7E90284621464FF48072FFF7EAFA06
:100C100005F5807021464FF48072FFF7E3FAA8F5DE
:100C2000805420464FF4805100F078F960B148F2CA
:100C30001801C2F2010120464FF480520DF5007DEB
:100C4000BDE8F04700F0C2B900200DF5007DBDE819
:100C5000F08700002DE9F043C1B048F218090C46B6
:100C6000C2F20109002190460646C0F6010148463D
:100C70004FF48052FFF7B6FA01AF384631464FF4D1
:100C80008072FFF7AFFA48F220324FF0FF300021B8
:100C9000CEF6B8527B5C5840082300BF064682EA75
:100CA0005000F50708BF7008013BF7D10131F82962
:100CB000F0D1C04301AE3F90484631464FF48072B8
:100CC000FFF790FA09F5807031464FF48072FFF714
:100CD00089FA002C18BFB8F1000F14D00B98D4E992
:100CE000041200F01F00D4E90037D4E9026509EBD3
:100CF0004010C0E98412C0E98265C0E98037D4E9B8
:100D00000621C0E986210024C0F6010420464FF4E4
:100D1000805100F003F9002804BF41B0BDE8F08322
:100D200048F21801C2F2010120464FF4805241B04E
:100D3000BDE8F04300F04AB92DE9F043C1B00446E4
:100D40006FF40030204410F5003F29D341F2000831
:100D5000C0F6010804F6FF7000F4FE21404600F0E2
:100D6000DDF8E8B104B300260DF10409A71B06EB7A
:100D70000805B7F5807F28BF4FF4807705F58021FF
:100D800048463A46FFF72EFA284649463A4600F0CA
:100D90001DF910B13E44A642E8D341B0BDE8F0834E
:100DA000002041B0BDE8F083012041B0BDE8F083F0
:100DB00040F21000C2F20000007801284FF000005D
:100DC00018BF70472DE9F043C1B040F21409C2F2D8
:100DD0000009D9F80010002944D0B1F5003F41D8EE
:100DE00041F20008C0F6010840464FF4003100F01F
:100DF00095F8B0B3D9F80020DAB1002401AD00BFF6
:100E0000161B04EB0807B6F5807F28BF4FF48076E9
:100E100007F1041128463246FFF7E4F9384629461F
:100E2000324600F0D3F8E0B1D9F8002034449442BF
:100E3000E6D3D8F800000023C2F6FE73D8F80410F9
:100E40001840B0F1005F4FF000000BD16FF31201BA
:100E5000B1F1006F06D108F10411404600F032F8FC
:100E600000E0002041B0BDE8F0437047B0F1006FF2
:100E70004FF0000323D311B30AB380B54FF6FF7CC4
:100E80008318CFF2F77C03EB0C0E0CF101039E45A7
:100E900001D2002311E07AB15242013910F801CB9E
:100EA00011F8013FBCEB0303B3FA83F34FEA53138A
:100EB00003D10132F2D100E00123BDE880401846A1
:100EC0007047000010B5B0F1006F4FF0000421D35F
:100ED00002B3B1F1006F1DD34FF6FF7CCFF2F77C68
:100EE000131863440CF1010E734513D302EB0C038A
:100EF0000B4473450ED37AB1524200BF10F8013B48
:100F000011F8014B1B1BB3FA83F34FEA531401D1C1
:100F10000132F3D1204610BD012010BD2DE9F04172
:100F2000B0F1006F4FF000074DD300294BD00144C2
:100F30004FF6FF720139C0F60702914243D840F6DE
:100F4000FF7220EA02044FF20000C0F6FF7001EACF
:100F5000000601F0B7FE0120012701F0B8FE1020C5
:100F600001F0B5FE802001F0B2FE402001F0AFFE9E
:100F7000B44226D840F20108CFF6C078204601F0EE
:100F8000ABFE404605464FF4803001F0AAFE002D2E
:100F90002F4618BF012718B1002D05F10100F1D12E
:100FA0007DB1012001F093FE102001F090FE802021
:100FB00001F08DFE402001F08AFE04F58054B44219
:100FC000DCD901F093FE3846BDE8F0812DE9F0430D
:100FD00081B00646B0F1006F4FF000006CD3894637
:100FE000002969D01446002A66D04FF6FF713019E7
:100FF000CFF2F77108440131884203D2002001B0DA
:10100000BDE8F08301F05EFE012001F060FE1020DB
:1010100001F05DFE802001F05AFE402001F057FEF5
:10102000B0071CD1042C1AD340F20108CFF6C078C7
:10103000D9F80010304601F05EFE404607464FF4F6
:10104000803001F04EFE18B1002F07F10100F5D1FC
:1010500077B3043C0436032C09F10409E8D8CCB179
:1010600040F201080027CFF6C07800BF19F807103A
:10107000B81901F045FE404605464FF4803001F0B6
:1010800030FE18B1002D05F10100F5D185B1013711
:10109000A742EBD10120012401F019FE102001F03C
:1010A00016FE802001F013FE402001F010FE00E04B
:1010B000002401F01BFE204601B0BDE8F0830000D3
:1010C00080B582B001460020002900906ED00888CB
:1010D0004FF6FF72904206D040F20802C2F20002C0
:1010E000128882422ED1887801282BD1887948BB7A
:1010F000C879022826D1888840F20351884224D03A
:1011000040F2025188421DD1684600F0F7F890B3D2
:10111000009840F21401C2F20001086040F2100091
:10112000C2F2000001210170FF208DF806000DF1D0
:101130000602022040F20251012300F087F901204B
:1011400002B080BD002002B080BD40F21000C2F2AB
:101150000000007820B3FF208DF807000DF1070292
:101160000220012300F072F9FFF722FEE8B11420FB
:1011700001F03CF919E040F21400C2F20000002135
:10118000016040F21000C2F200000170FF2040F246
:1011900002510022002300F059F9022002B080BD64
:1011A000FF200022002300F051F9032002B080BD8F
:1011B0002DE9F04F87B044F20040C4F2000030A1A6
:1011C00001F022FA40F2002848F2203543F28B6900
:1011D0004FF0000AC0F60108CEF6B855C0F6000977
:1011E000002602E00136202E39D0700158F80000A8
:1011F000B0F1B12FF6D108EB46104FF0FF310022CD
:10120000835C5940082300BF0C4685EA5101E7077B
:1012100008BF6108013BF7D101321C2AF0D1C26935
:10122000D0E9013ED0E90374D0E905CB82EA0100A0
:10123000013018A016A108BF0846059044F20040EE
:10124000C4F2000049463246CDE900E7CDE9024C40
:10125000CDF810B001F0D8F90AF1010AC2E7BAF1ED
:10126000000F1CBF07B0BDE8F08F44F200400AA198
:10127000C4F2000007B0BDE8F04F01F0C5B900BFEF
:10128000424C206C6F672064756D703A0D0A000047
:101290004F4B00004241440020203C656D70747942
:1012A0003E0D0A0070B54FF0B126C0E9006100F1B3
:1012B0000801DDF818E0DDE904542CC148F22032C1
:1012C0004FF0000C4FF0FF31CEF6B852C0E9054E9A
:1012D000C0F81CC010F80C30594008230E4682EAB2
:1012E0005101F50708BF7108013BF7D10CF1010C62
:1012F000BCF11C0FEED1C943C16170BD2DE9F04FA7
:1013000083B0044601F0DAFB002C019400F09980D0
:10131000064601F0D3FB801B47F22F51884257D875
:1013200044F2004540F213080020C4F2000547F2E1
:1013300030544FF00109C0F2800800213746029175
:101340004FEAC07B08E000BFC01BC72842D801F0AD
:10135000B5FB801BA0423DD22868C00618BF686854
:101360002868800648BFD5F804A000280AD401F0F8
:10137000A5FBBBF1000FE7D1801B42F20F71884241
:10138000E5D95EE0BBF1000F0AD16FF0080050FA1A
:101390008AF0172804D809FA00F010EA080FD6D10D
:1013A0000298B0F5C03F4CD0029840F21801C2F24A
:1013B000000101F800A00130029001F07FFB074618
:1013C00001F07CFB801BA0424FF00100B8D301E08C
:1013D000002002900298052833D340F21800C2F290
:1013E000000000684CF23C3100BAC5F6A5218842E5
:1013F00027D1029801990438B0F5003F086020D841
:10140000029841F20005C0F6050500F6FF7000F4F1
:10141000FE212846FFF782FD98B140F21801029A9A
:10142000C2F200012846FFF7D1FD50B140F2180189
:10143000029AC2F20001284603B0BDE8F04FFFF760
:1014400015BD002003B0BDE8F08F000012B9002BDD
:1014500018BF7047B0B5BAB040F2080EC2F2000E25
:10146000BEF800E04BF2A56C8DF89F00080AADF8BD
:101470009BC04FEA1E2C8DF8A00002208DF89DC065
:101480008DF89EE08DF8A1108DF8A2308DF8A300A4
:101490002BB110784FF00A0E8DF8A40001E04FF048
:1014A000090E4FF6FF7200230DF19B0C4AF201006A
:1014B0001CF803104A400021144680EA5202E50756
:1014C00008BF6208072901F10101F5D30133734513
:1014D000EED10CEB0E00110A0CF80E1042704AF21D
:1014E000B65143F2D56241804EF0040E0021C0F6A1
:1014F00000020DF1010300BF1CF8015003EB410095
:101500002C09145D03F8114005F00F04145D01313E
:101510008E454470F0D14FEA4E010DF1010001F00B
:1015200033FA3AB0BDE8B040704700002DE9F04F03
:10153000C1B0044601F0C2FA002C00F070810546EB
:1015400001F0BCFA401B632800F2698144F20047B5
:101550001AA840F2090A0394C4F20007861C00246A
:101560006FF0090B4FF00108C0F2400A06E000BF1F
:1015700001F0A4FA401B642880F051813868C0064D
:1015800018BF78683868800648BFD7F804900028EC
:10159000EED55BFA89F0162804D808FA00F010EAB4
:1015A0000A0FE5D1A9F13000C1B20A29029610D381
:1015B000A9F14100C0B2052802D8A9F1370008E01E
:1015C000A9F16100C0B206284FF0FF3038BFA9F181
:1015D0005700C0B2FF284FF000066AD0A0B29A2888
:1015E00067D2661C19281AA901F8009061D3B44685
:1015F0001FFA86FE00261AA810F81630A3F1300252
:10160000D1B20A2910D3A3F14101C9B2052902D8E8
:10161000A3F1370208E0A3F16101C9B24FF0FF3234
:10162000062938BFA3F1570200EB46014978A1F122
:101630003003DCB20A2C10D3A1F14103DBB2052B3D
:1016400002D8A1F1370308E0A1F16103DBB2062B58
:101650004FF0FF3338BFA1F15703D1B2FF39DCB2ED
:1016600018BF0121FF3C18BF0124214001291FD1CF
:1016700043EA02120DF112039A550136092EBBD12D
:10168000B1B1BDF812104AF2B65209BAB2EB114F1D
:101690000AD0AEF1020402992246FEF7A3FDA0B2E1
:1016A00026461928A3D804E09DF8190040280AD935
:1016B0000026344601F002FA411B029E00206429F4
:1016C000FFF45CAFA8E0014601900D30C0B2BEEB64
:1016D000400F6646EDD3864600211AA810F8110087
:1016E000A0F13003DAB20A2A10D3A0F14102D2B23B
:1016F000052A02D8A0F1370308E0A0F16102D2B2B6
:101700004FF0FF33062A38BFA0F157031AA800EBA9
:1017100041004278A2F13000C4B20A2C10D3A2F1E9
:101720004100C0B2052802D8A2F1370008E0A2F1BA
:101730006100C0B206284FF0FF3038BFA2F1570059
:10174000DAB2FF2A4FF00006B3D0C2B2FF2AB0D0FF
:1017500040EA03100DF11B02505401318E45BCD1FB
:10176000BDF81B004AF2B65100BAB1EB104FA0D140
:10177000BDF81D00039B00BA000C18809DF81F00E7
:10178000BDF820109DF8222098709DF8230009BA1A
:10179000090C402A99809A71D8713FF68AAF019955
:1017A0008A4208BF02287FF484AF0DF11B00104469
:1017B000B0F80B004BF2A56100BAB1EB104F7FF40B
:1017C00078AF02F1090E0DF11B0030F80E004FF654
:1017D000FF7340BA01900DF11B00805D4AF2010CCD
:1017E000434000201C468CEA5303E10708BF63080E
:1017F000072800F10100F5D301367645EBD10198B9
:1018000083427FF455AF32B103980DF11B010830CC
:101810000931FEF7E7FC012041B0BDE8F08F002060
:1018200041B0BDE8F08F0000ADF58C6D8CAD0021AE
:1018300048F220394CF2C3384CF23C3741F2000BED
:1018400041F2000AC0F6010128464FF48072CEF63C
:10185000B859CAF2A558C5F6A527C0F6050BC0F6BB
:10186000010AFEF7BFFC4CAC40F20011C0F60101CA
:1018700020464FF48072FEF7B5FC8C980026B842E3
:1018800029D1CB98404526D18D98B0F1011F22D1A6
:10189000919850451FD1929858451CD18F98B0F51A
:1018A000003F18D84FF0FF30002100BF6A5C504065
:1018B000082200BF034689EA5000DE0708BF580827
:1018C000013AF7D10131F829F0D1CA9948400130E5
:1018D000B0FA80F046094C980025B84229D18B987F
:1018E000404526D14D98B0F1011F22D15198504565
:1018F0001FD1529858451CD14F98B0F5003F18D8C9
:101900004FF0FF30002100BF625C5040082200BF52
:10191000034689EA5000DD0708BF5808013AF7D1AD
:101920000131F829F0D18A9948400130B0FA80F0AD
:10193000450906EA0500012810D193985399884279
:1019400013D300210CA8C0F601014FF48072FEF7FA
:1019500049FC40F20008C0F6010893E016B10CA85B
:10196000002105E0002D00F04A830CA840F2001190
:10197000C0F601014FF48072FEF734FC40F200081B
:10198000C0F6010813AA07CA4FF0B1230144002092
:101990000B90CDE904310121CDE906110A924FF0F7
:1019A000FF3104AACDE90865135C5940082300BF44
:1019B0000F4689EA5101FE0708BF7908013BF7D1BC
:1019C00001301C28F0D1C84316990B90481C48F2EE
:1019D000180400F01F00C2F2010400211690C0F6A6
:1019E000010120464FF48052FEF7FCFBD8AE0CA953
:1019F00030464FF48072FEF7F5FB4FF0FF300021C8
:101A0000725C5040082200BF034689EA5000DF079D
:101A100008BF5808013AF7D10131F829F0D1C04385
:101A2000D8AECDF85804204631464FF48072FEF708
:101A3000D9FB04F5807031464FF48072FEF7D2FB7B
:101A4000E29804AF00F01F0004EB40108ECFDDE9F8
:101A50000865DDE90A4C00F5007E8EE88E00C0E9DD
:101A60008465C0E9864C40464FF48051FFF756FA32
:101A700040B148F21801C2F2010140464FF48052D1
:101A8000FFF7A4FA40F20400C2F200004FF49641BE
:101A90000160D8F8001844F6435240F20803C4F23B
:101AA0004932C2F2000391424FF00101198028D15E
:101AB00040F60401C0F601010A68B2F1011F20D10D
:101AC000CA6945F24D23C5F241039A4219D18A6988
:101AD0004FF0FF33002700BF08EB070696F80068B9
:101AE000734008261D4689EA5303EC0708BF6B08BC
:101AF000013EF7D101371C2FEED15A40013200F0E0
:101B0000A982006800F00EFC0E9B45F2AA57C5F2B0
:101B1000AA57BB4240F0AA8144F2004500240CA819
:101B20000393C4F20005CDE90E4410941594FEF71A
:101B3000BBFF40F21400C2F20000046040F210004B
:101B4000C2F20000047058464FF400312C46FFF7F3
:101B5000E5F943F27560C0F600000D2100F014FFB6
:101B600043F22860C0F600001D2100F00DFF43F293
:101B70004660C0F600002E2100F006FF28464FF414
:101B8000417101F087F82846002101F06BF82868C0
:101B900060682068C00618BF606820688006F7D4B7
:101BA00000F08CFF054600F089FF401B42F20F71E8
:101BB000884200F2BB8044F6D354C1F26204D8AE2E
:101BC00042F210784FF0FF3B06E000BF00F076FFD6
:101BD000401B404580F0AA8000F070FF401BA0FB36
:101BE00004014FEA911AD34554D0A046CAF10A0421
:101BF000AB46E5B2062D14D343F27560C0F6000083
:101C00000D2100F0C1FE43F22860C0F600001D2146
:101C100000F0BAFE43F24660C0F600002E2100F04C
:101C2000B3FEDFF8EC050FF2E856371DCC908FCFEE
:101C30000DF54D7C8CE80F00308B0A2DADF8480374
:101C4000B07ED1978DF84A0306D343F23100ADF848
:101C50004B031D2205E000BF44F030001C228DF82C
:101C60004B0342F67313CCA8C8F2E20381188350E9
:101C700040F60D230B814EF2A623CAF280634B601F
:101C800002F10A0144465D4642F2107800F07CFE03
:101C9000D346D8AE3046FFF749FC002896D0BDF8B1
:101CA00060034FF6FF71884206D040F20801C2F28D
:101CB00000010988814289D13046FFF701FA0128E5
:101CC00034D0032800F0C180022807D0BDF8641387
:101CD000FF2000220023FFF7B9FB77E700F0EEFEBC
:101CE00044F20047C4F20007054638464FF44171FC
:101CF00000F0D0FF3846002100F0B4FF386841F210
:101D00000000C0F6050000BF79683968C90618BF31
:101D1000796839688906F7D44FF40031FFF7FEF887
:101D200000F0CCFE401B4045FFF44CAF40F21000E9
:101D3000C2F200000078012840F0878000F0BEFE6B
:101D4000074600F0BBFEC01B42F6DF66B0427CD8FF
:101D50004FF6FF7AD8AC42F6E0650FE02046FFF779
:101D6000AFF9E0B9BDF86413FF2000220023FFF7AC
:101D70006DFB00F0A3FEC01BA84266D22046FFF711
:101D8000D5FB0028F5D0BDF860035045E6D040F201
:101D90000801C2F2000109888142EAD1DEE7032886
:101DA00053D002284DD144F20047C4F20007384610
:101DB0004FF4417100F06EFF3846002100F052FFF1
:101DC000386841F20000C0F6050000BF7968396844
:101DD000C90618BF796839688906F7D44FF400310D
:101DE000FFF79CF800F06AFE074600F067FEC01B94
:101DF000B0420CD9BDE7BDF86413FF2000220023D8
:101E0000FFF724FB00F05AFEC01BA842B1D22046C7
:101E1000FFF78CFB0028F5D0BDF86003504506D0D5
:101E200040F20801C2F2000109888142EAD120464D
:101E3000FFF746F90028DED0012802D00328E1D1BF
:101E400003E000F03BFE074693E741F2000A41F24F
:101E5000000B40F20008039B45F2AA57C0F6010AA6
:101E6000C0F6050BC0F60108C5F2AA570E984AF64F
:101E70005521CAF65521884200F00681DAF8001093
:101E80000022C2F6FE72DAF804001140B1F1005FE0
:101E900031D16FF31200B0F1006F2CD1BB4203D0EF
:101EA00041F2883000F0A2FA4EF21000CEF20000AB
:101EB00072B600214FF0FF3201604160816000BFC7
:101EC00000EB810301310829C3F87021C3F87022A7
:101ED000F6D14EF60850BFF34F8FCEF20000BFF39D
:101EE0006F8FC0F800A0DAF8000080F30888DAF8F5
:101EF000040062B68047FFF75BF9DDE913020421B5
:101F0000024400204FF0B12315910790CDE90A005B
:101F1000CDE904320691CDE9081A4FF0FF3104AA49
:101F2000135C5940082300BF0F4689EA5101FE07A0
:101F300008BF7908013BF7D101301C28F0D1C84314
:101F400016990B90481C48F2180400F01F00C2F2CA
:101F5000010400211690C0F6010120464FF4805282
:101F6000FEF740F9D8AE0CA930464FF48072FEF768
:101F700039F94FF0FF300021725C5040082200BF59
:101F8000034689EA5000DF0708BF5808013AF7D135
:101F90000131F829F0D1C043D8AECDF8580420461D
:101FA00031464FF48072FEF71DF904F5807031461A
:101FB0004FF48072FEF716F9E29804AF00F01F00AC
:101FC00004EB40108ECFDDE90865DDE90A4C00F531
:101FD000007E8EE88E00C0E98465C0E9864C4046EC
:101FE0004FF48051FEF79AFF40B148F21801C2F257
:101FF000010140464FF48052FEF7E8FFFEE70CACCB
:1020000020464FF48071FEF714F94FF00110CDF81F
:102010002C8140F200080D9000204FF0FF31C0F6F7
:1020200001080C970E90CDE911AB1690225C51403F
:10203000082200BF0B4689EA5101DF0708BF590893
:10204000013AF7D10130F828F0D1C8434A90012075
:10205000159097E48A88002A3FF453AD4FF6FF733A
:102060009A423FF44EAD89791139C9B203299EBF16
:1020700040F20803C2F200031A803FF642AD60A2AC
:1020800052F8211001603CE500210F98CFF6F8715D
:102090006FF40032024401F5C0239A4212D3DBF8F8
:1020A000003000275A46C2F6FE77DBF804203B409A
:1020B000B3F1005F06D11140B1F1006F02D110BB46
:1020C000002733E00121CDF6AD610E91DDE913214A
:1020D000022301311491159311440027CDE90030FA
:1020E00004AC2046032200230297FFF7DBF8169882
:1020F0002146013000F01F0016900CA80122FEF7C7
:10210000A9FDFEF7BFFC4FF0FF3100221BF80230A3
:10211000594008230F4689EA5101FE0708BF790894
:10212000013BF7D101328242F0D1CF43109A97425E
:1021300007D1FEF701FE90B10F98F8B94FF0000CEF
:1021400031E00120CDF6AD600E90DDE913100223E1
:102150000130014414901593CDE90032C0E701200D
:102160001499CDF6AD600E9001314FF0000C1C2794
:10217000032500260320002314912BE04FF0FF31AC
:1021800000221AF802305940082300BF0F4689EA9E
:102190005101FE0708BF7908013BF7D101328242A5
:1021A000EFD16FEA010C109EB44508D113990025B8
:1021B00001310E9513910222012320270BE014997F
:1021C0000120CDF6AD6001310E90149100231C2743
:1021D00003250320032215950CACE75904AD3944BF
:1021E000CDE900062846CDF808C0FFF75BF8169841
:1021F0002946013000F01F00169020467EE700BF00
:10220000C012000080250000004B000000C2010049
:102210007761697420666F722073746172742041F3
:1022200070706C69636174696F6E280010B541F25B
:102230001C0000F079FB44F20044C4F2000472B6C2
:1022400020464FF4417100F025FD262000F012FADF
:102250002046002100F006FD204600F0FDFC4FF472
:10226000406000F061FB40F6034000F05DFB40F68B
:10227000044000F059FB04F5E43003210022602300
:1022800000F068F904F5E630032100224FF4807372
:1022900000F060F904F5DE3420460021012201231C
:1022A00000F058F94FF4406000F03EFB41F20E1090
:1022B00000F03AFB204600210122012300F04AF9F8
:1022C0000020002100F092FB01200021022200F0FA
:1022D000ABF8012000F0F6F806200121002200F002
:1022E000DFF9002000F034FA012000F031FA4EF25C
:1022F0001000CEF200000168002221F0020101600E
:1023000062B601204FF4402100F032FAFEF7A4FA41
:10231000FEF75CFA00F0ACFB4FF49640BDE81040CD
:10232000AFF30080F0B581B00546002840F60340C9
:1023300008BF4FF4964500F0F7FA40F6044000F06D
:10234000F3FA41F2110000F0EFFA44F20044C4F253
:10235000000404F5E43630460721602200F0C2F89C
:10236000304602210122602300F0F4F830460021BB
:102370000222602300F018F904F5E6363046012108
:1023800000224FF480734FF4807700F0E3F830467A
:10239000002102224FF4807300F006F941F2280078
:1023A000C4F202000760204600F0F2FB20462946F6
:1023B00000F08AFB2046042100F078FC204608212A
:1023C00000F07AFC2046002100F04CFC20464FF43F
:1023D000417100F05FFC204601B0BDE8F04000F024
:1023E0004BBC00004FF49640FFF79CBF49F2180128
:1023F000C2F20101086000BF08680028FCD17047E4
:1024000049F22C00C2F2010001680131016049F279
:102410001800C2F201000168002908BF7047016876
:10242000013901607047000043F6084CC4F2010C0A
:102430005CF8083C012923EA00034CF8083C5CF8EE
:10244000043C23EA00034CF8043CDCF8003023EAA7
:102450000003CCF80030DCF8043023EA0003CCF8A9
:10246000043019D021B95CF8081C01434CF8081C51
:10247000022A18D0012A6FEA000118D0002A18BFDA
:102480007047DCF800201043CCF80000DCF80400B2
:102490000840CCF8040070475CF8041C01434CF879
:1024A000041C022AE6D1DCF80010014302E0DCF84B
:1024B00000201140CCF80010DCF804100843CCF8E0
:1024C0000400704743F61441C4F2010108607047EC
:1024D00043F61441C4F201010968084018BF012005
:1024E00070470000F0B5D0F820E0D0F824C00023F9
:1024F0000F27002505E000BF0135082D03F1040377
:102500000CD022FA05F6F607F6D007FA03F62EEA03
:10251000060601FA03F446EA040EEDE70823002458
:102520000F2504E00133102B04F104040CD022FA2F
:1025300003F6F607F6D005FA04F62CEA060701FAC8
:1025400004F647EA060CEDE7C0F820E0C0F824C026
:10255000F0BD00002DE9F041D0F800E0D0F80CC04B
:1025600000244FF00308002605E000BF0136102EBE
:1025700004F1020412D023FA06F7FF07F6D008FA96
:1025800004F72EEA070E01FA04F54EEA050E2CEACE
:10259000070702FA04F547EA050CE7E7C0F800E090
:1025A000C0F80CC0BDE8F0810129416814BF99430F
:1025B00019434160B0B5D0F808C000214FF0030EB8
:1025C000002404E00134102C01F102010CD023FAA4
:1025D00004F5ED07F6D00EFA01F52CEA050C02FA27
:1025E00001F54CEA050CEDE7C0F808C0B0BD0000ED
:1025F00000F03EFAFFF7F6FEFFF716F9FFF716FEBA
:10260000FFF712F9FAE7000082B0F0B5ADF5017DF1
:102610000E4601AD0446CDE9862386AB28464FF42D
:1026200000713246009300F071FB49F23007C2F2AC
:1026300001070021398039880646884212DD00BF33
:102640003888295C204600F09FFA00BF2046072109
:1026500000F018FB0028F9D038880130388038881D
:102660008642EDDC30460DF5017DBDE8F04002B05C
:1026700070470000002848BF704700F01F0101228A
:1026800002FA01F11C2202EAD0004EF28012CEF2D0
:1026900000028150BFF34F8FBFF36F8F7047000070
:1026A000B0B54EF60C5ECEF2000EDEF800304FF004
:1026B000FF3503F4E063A3F54073B3F5A06F22BFC9
:1026C00040F20053C0F2FA53CEF80030DEF800308A
:1026D0004EF2001CC3F3022383F00704042C28BF2E
:1026E0000424033B05FA04F438BF0023A1439940B6
:1026F00005FA03F39A4300F00F037344CEF2000C83
:1027000011430833B0F1FF3F4FEA011100EB0C0217
:10271000C8BF02F540730028197048BFB0BD00F073
:102720001F01012202FA01F1C0F342104CF82010FF
:10273000B0BD00004FF68072C1F6FF721140084331
:102740004EF60851CEF200010860BFF34F8F70477C
:1027500020B1012818BF7047082000E0042047F28C
:102760000001C4F200010A681043086070470000CD
:10277000B0B547F2000CC4F2000CDCF800E04FF2F8
:10278000FC33CFF6F37303EA0E03CCF80030DCF829
:102790000030B1F5402F43EA0003CCF800300DD1F2
:1027A000DCF8001040F20043C0F20C03002808BF20
:1027B00003F5806341EA0300CCF800004EF21000FC
:1027C000CEF20000D0F8001D49F21C0C41F00401CB
:1027D000C0F8001D0168C2F2010CCCF80010D0F85E
:1027E000F01049F2200EC2F2010ECEF80010D0F81F
:1027F000F43049F22401C2F201010B60D0F8F84034
:1028000049F22803C2F201031C6004680425C0F2E7
:1028100001052C4004604FF63104CFF67F74C0F8F8
:1028200070414FF6FF04CBF6FF74C0F874416FF4AB
:102830008054C0F87841002A0FBF30BF40BF20BF8E
:1028400020BFDCF800200260DEF80020C0F8F02095
:102850000968C0F8F4101968C0F8F810D0F8001D25
:1028600021F00401C0F8001DB0BD000010B543F612
:102870000402C4F2020253680146C3F3810342F228
:102880000040022BC0F2F40006D0012B1FD147F606
:102890004000C0F27D101AE0D2F800C013680CF0BE
:1028A0003F0CC3F3881E13681468C3F3014364022A
:1028B00047F64004C0F27D1458BF0446B4FBFCF454
:1028C000022000EB430004FB0EF3B3FBF0F053686F
:1028D00011A4C3F30313E35C546843F2836CC4F3A1
:1028E0008224C0F6000C1CF804E05268032911D8B9
:1028F00020FA03F3DFE801F00D020407184610BDCB
:1029000023FA0EF010BDC2F342301CF8000023FA87
:1029100000F010BD002010BD00000000000000000D
:10292000010203040607080943F6000300F01F0133
:102930008009C4F202034FF0010CC2580CFA01F1F5
:102940001143C1507047000043F6000300F01F011F
:102950008009C4F202034FF0010CC2580CFA01F1D5
:1029600022EA0101C150704743F6000300F01F0145
:102970008009C4F202034FF0010CC2580CFA01F1B5
:102980001143C15070470000002808BF70472DE96F
:10299000F0410E4631B341F2180844F200450446B6
:1029A000C4F20208C4F200054FF480700027C8F892
:1029B000000000BFE15D284600F0E6F82846072148
:1029C00000F060F90028F9D00137B742F2D100BF1A
:1029D0002846062100F056F90028F9D04FF48070FF
:1029E000C8F81000BDE8F041704700008A08032ACB
:1029F00088BF70470C2303EA81010F238B4000FA44
:102A000001FC01EB8200D943DFE802F002260E1A36
:102A100043F60800C4F20100026811400160016839
:102A200041EA0C010160704743F60800C4F201005E
:102A3000826811408160816841EA0C0181607047C1
:102A400043F60800C4F20100C2681140C160C168C9
:102A500041EA0C01C160704743F60800C4F201006E
:102A6000426811404160416841EA0C014160704791
:102A700040F20000C2F20000006844F6D351C1F2F7
:102A80006201A0FB01014FF0FF3000EB9110B0F1AB
:102A9000807F11D24EF21001CEF2000148604EF656
:102AA0002350CEF20000F0220270002207238A6039
:102AB0000B600270704700BFFEE7000049F22C0077
:102AC000C2F2010000687047B0B5044647F2FF70DB
:102AD000C4F200000D4684424FF000000EDC44F6C4
:102AE000FF31C4F200018C4217DC44F20041C4F211
:102AF00000018C421DD044F6000116E040F6FF7143
:102B0000C4F201018C422FDC47F60001C4F200013F
:102B10008C420ED047F6004107E044F60041C4F273
:102B200000018C4205D045F20001C4F200018C4244
:102B300003D102210846FFF799FEE168090406D493
:102B400000EB5500B0FBF5F080B2A060B0BD4000D6
:102B500000EB5500B0FBF5F04FF6F0710140C0F30B
:102B600042000844A060B0BD41F20001C4F201017E
:102B70008C424FF00301DDD041F20042C4F2010269
:102B80009442D7D0D9E700006FF35F2141607047CE
:102B900010B547F2FF71C4F20001884214DC44F61C
:102BA000FF31C4F20001884224DC44F20041C4F247
:102BB000000188423CD044F60001C4F20001884282
:102BC00049D140F612043EE040F6FF71C4F2010123
:102BD00088421EDC47F60001C4F2000188422AD078
:102BE00047F60041C4F20001884218BF10BD40F60C
:102BF0001F0428E044F60041C4F2000188421DD0C1
:102C000045F20001C4F20001884224D140F61404C8
:102C100019E041F20001C4F20101884211D041F2F1
:102C20000041C4F20101884215D140F605140AE0C2
:102C300040F6110407E040F61E0404E040F61304D9
:102C400001E040F604142046FFF78EFE2046BDE862
:102C50001040FFF779BE10BDC16821F40051C1607A
:102C600070470000426901F0400122F040024261D9
:102C70004269114341617047C16841F40051C1602C
:102C8000704700008A09105801F01F01C84000F089
:102C90000100704701F01F0289094FF0010C0B5829
:102CA0000CFA02F223EA02020A507047C26822F0CC
:102CB00004021143C1607047C26822F00802114348
:102CC000C16070474BF2352CC2F2010C60474BF2E9
:102CD000191CC2F2010C60474BF24D1CC2F2010CF0
:102CE00060474BF2251CC2F2010C60474BF2391CC5
:102CF000C2F2010C60474BF25D2CC2F2010C60473E
:102D00004BF2390CC2F2010C604700007CB50C009C
:102D10001D461646014601D0601E00E00020CDE9A8
:102D20000010064B6A462946304600F0DBF8002CBE
:102D300002D0009A002111707CBD000013360008FB
:102D400002E008C8121F08C1002AFAD17047704774
:102D5000002001E001C1121F002AFBD170470000D2
:102D60002DE9FF5F82B00021DDE90430020DDDF8BE
:102D700040B0034318D044F61050A2F2FF32424351
:102D80001514119801281FD0A5EB0B00401C5FEA19
:102D9000000A4FF000064E4FDFF83891B04650461B
:102DA00015D5CAF1000413E0119801244AA30128A3
:102DB00001D16FEA0B010298119AC0E90031C0E914
:102DC000024206B0BDE8F09FCBF10000DFE7044609
:102DD0000021404A491842EB0450CDE9001012E0AE
:102DE000E00707D032463B4640464946FDF71AFB0E
:102DF0008046894632463B4610461946FDF712FB8F
:102E000006460F466410002CEAD1DDE90401DDE935
:102E10000023BAF1000F06DAFDF704FB42464B46E9
:102E2000FDF700FB05E0FDF76FFB42464B46FDF763
:102E30006BFB04460E460022284BFDF7EDFB03D842
:102E40004FF0FF30014607E00022254B2046314677
:102E5000FDF741FAFDF7C7FB102409E0002C0ADB5F
:102E60000A220023FDF706FA039B30321A55641E2E
:102E700050EA0102F2D1641C039AC4F11103144414
:102E8000119A012A03D0012208430DD10AE0084318
:102E900004D000204FF0110B119072E7A3EB0B054B
:102EA0006D1E0DE05B4504DD4FF0000205F10105EC
:102EB00004E003DA4FF00002A5F10105002AECD08E
:102EC00002981199C0E90231C0E9004579E7000094
:102ED000000014400000F03F300000000000F0430C
:102EE0000000E03F2DE9FF4F95B09B46894606461E
:102EF00000250FE2252877D100242746F84A012132
:102F0000059400E0044316F8013F203B01FA03F06A
:102F10001042F7D130782A2811D06FF02F03307883
:102F2000A0F13002092A16D8059A44F0020402EBF7
:102F3000820203EB42021044761C0590EFE759F839
:102F4000042B0592002A03DA504244F40054059001
:102F500044F00204761C30782E2816D116F8010FA2
:102F600044F004042A280DD06FF02F023078A0F12D
:102F70003003092B09D807EB870302EB4303C7187B
:102F8000761CF3E759F8047B761C30786C280FD058
:102F900006DC4C2817D068280DD06A2814D104E02C
:102FA000742810D07A280FD10DE044F400140AE000
:102FB00044F4801401E044F440147278824202D157
:102FC00004F58014761C761C307866280BD013DC50
:102FD000582877D009DC002875D04528F6D0462837
:102FE000F4D047281AD19DE118E0632835D0642831
:102FF00079D0652812D195E1702873D008DC672854
:10300000F1D069286FD06E280DD06F2806D1B5E0B9
:1030100073282CD0752875D0782874D05A46179903
:1030200090476D1C75E1C4F30250022809D00328B3
:103030000DD0D9F8001004280DD00D6009F1040955
:1030400067E1D9F80010EA17C1E90052F6E7D9F8AC
:1030500000100D80F2E70D70F0E719F8041B8DF8F1
:10306000001000208DF80100EA46012003E059F825
:1030700004AB4FF0FF3061074FF0000102D40DE0C8
:1030800008F101018846B9420FDA8045F8DB1AF8E9
:1030900008100029F4D108E008F1010188468142B6
:1030A000FADB1AF808100029F6D105985B46A0EB68
:1030B000080721463846179A00F094FA284400EB96
:1030C000080507E04DE029E10DE01AF8010B5A462A
:1030D00017999047B8F10108F7D25B462146384668
:1030E000179A13E142E00A220092C4F302524FF011
:1030F000000A022A08D059F804CB032A4FEAEC71DF
:103100000AD00DE029E02AE009F1070121F00702C9
:10311000F2E802C1914609E00FFA8CFC4FEAEC712B
:10312000042A03D14FFA8CFC4FEAEC71002907DA2C
:103130000A460021DCF1000C61EB02012D2202E0C5
:10314000220504D52B228DF80420012203E0E2079A
:1031500001D02022F7E7904659E00A2102E0102230
:103160000DE010214FF0000A00910BE010224FF00B
:10317000000A44F004040827009203E008224FF0FC
:10318000000A0092C4F30252022A05D059F804CB77
:103190000021032A08D009E009F1070121F0070204
:1031A000F2E802C1914605E01FFA8CFC042A01D125
:1031B0000CF0FF0C4FF00008220728D5702806D02D
:1031C000009B83F0100353EA0A0305D00EE040226F
:1031D0008DF80420012208E05CEA010206D03022CA
:1031E0008DF804208DF8050002229046009B83F0A4
:1031F000080353EA0A030AD15CEA010201D162071B
:1032000005D530228DF804204FF001087F1E582884
:1032100004D034A003900EA802900DE036A0F9E788
:1032200053466046009AFDF725F884460398825C71
:103230000298401E029002705CEA0100F0D10298F0
:1032400006A9081A00F1200A600702D524F4803488
:1032500000E00127574502DDA7EB0A0000E000204F
:1032600000EB0A01009005984144401A0590E003E4
:1032700006D45B462146179A059800F0B3F9054439
:10328000002706E001A85A46C05D179990476D1CBB
:103290007F1C4745F6DBE0030CD55B462146179AB9
:1032A000059800F09FF9054404E030205A4617992C
:1032B00090476D1C0099481E00900029F5DC08E03D
:1032C000029802995A460078491C02911799904732
:1032D0006D1CBAF10001AAF1010AF1DC65E1000000
:1032E00009280100303132333435363738396162DC
:1032F00063646566000000003031323334353637A0
:1033000038394142434445460000000000F058F976
:103310000544761C307800287FF4ECAD19B02846BF
:10332000BDE8F08F620700D4062709F1070222F0FA
:10333000070CFCE80223E14603F000485FEA080CB2
:1033400002D00FF2702C0DE05FEA045C02D50FF2A0
:10335000682C07E05FEAC47C02D00FF2602C01E029
:10336000AFF2700C4FF0FF3823F00043CDF850C09F
:1033700065280CD006DC452809D046281DD04728F2
:103380003DD13DE0662818D067287ED138E0002185
:10339000112F01DB112000E0781CCDE9000106A906
:1033A0000EA8FFF7DDFCDDE90F010E9A0391002165
:1033B000009207F1010A04914DE04FF000400097A0
:1033C000CDE9011006A90EA8FFF7CAFCDDE90F023E
:1033D00003920E9B11990022DDF80CA00093049239
:1033E00011B9791C00EB010AB7EB0A0004D4C0F153
:1033F000FF3007F1010A0490AAEB0700019044E0B6
:10340000012F00DA01270021112F01DD112000E03A
:103410003846CDE9000106A90EA8FFF7A1FCDDE9B9
:103420000F010E9A0391002104910092BA462107E0
:103430000CD40399514500DA8A46BAF1010F05DD33
:10344000009AAAF10101515C302908D0B84202DA91
:1034500010F1040F06DA0121CDE9011015E0AAF1FF
:103460000101E9E7002805DC049901440491AAEB75
:10347000000102E0411C514500DD8A460499401AD2
:10348000401C01904FF000400290200704D40198A6
:10349000504501DBCDF8048000208DF84F000298E4
:1034A0000DF14F07B0F1004F25D02B200E90029860
:1034B0004FF0020800280CDA404202902D200E90B6
:1034C00007E00A210298FCF7BFFE3031029007F8AE
:1034D000011DB8F10001A8F10108F2DC02980028F2
:1034E000EFD1791E0E980870307800F0200040F07F
:1034F000450007F8020D12A8C01B00F10708149838
:10350000007800B1012000EB0A01019801EBE071A5
:1035100005984144401A401E0590E00306D45B46DE
:103520002146179A059800F05DF805441498007834
:1035300018B15A46179990476D1CE00324D55B4695
:103540002146179A059800F04DF805441CE00498B0
:10355000002807DBDDE90301884203DD0098405CB9
:10356000179901E0179930205A469047049805F1C1
:103570000105401C04900198401E019004D12E20AA
:103580005A46179990476D1CBAF10001AAF1010A39
:10359000DDDC05E017F8010B5A46179990476D1CC2
:1035A000B8F10001A8F10108F4DC5B462146179A46
:1035B0000598ABE62D0000002B0000002000000065
:1035C0002DE9F041044600251E461746880404D420
:1035D00005E039462020B0476D1C641EF9D5284609
:1035E000BDE8F0812DE9F041044600251E469046D5
:1035F000C80301D5302700E02027880404D505E062
:1036000041463846B0476D1C641EF9D52846BDE8D2
:10361000F0814A68002A06D00A68531C0B601070BB
:103620004868401E486070474170706C69636174FF
:10363000696F6E2056657273696F6E20322E302E60
:10364000312E300D0A007573696E6720636F6D6DE2
:10365000616E6420746F20696E7465727275707427
:10366000207374617274204170706C696361746955
:103670006F6E0D0A0073797374656D20696E6974DD
:103680000D0A00000000000102030420205B253029
:1036900032755D207365713D2575206576656E74A4
:1036A0003D257520726573756C743D2575207630E7
:1036B0003D3078253038582076313D307825303807
:1036C000582076323D307825303858206372633D7B
:1036D00025730D0A003031323334353637383941ED
:1036E000424344454600000018370008000000200F
:1036F00010000000402D00082837000838B00120D5
:1037000008030000402D00082837000810000020A2
:1037100028B00100502D0008001C4E0E004B000088
:103720000100000000000000B0B50123CBF200034F
:1037300043F6104E8446C4F2020E06241A4600BF19
:103740005EF8040CC5030DD4C5050DD405060DD4D3
:1037500045060DD4C5065ABF800704EAE07005206F
:1037600008E000BF012005E0022003E0032001E0A3
:10377000042000BF012802F1010201D1002ADFD19B
:10378000002A08BF0720002818BFB0BDDEF80000DF
:1037900020F44070CEF80000DEF80000CEF8000003
:1037A000DEF8000040F00100CEF800008CF80010B8
:1037B000062100BF5EF8040CC2030DD4C2050DD46F
:1037C00002060DD442060DD4C2065ABF800701EA94
:1037D000E070052008E000BF012005E0022003E0C2
:1037E000032001E0042000BF012803F1010301D1FF
:1037F000002BDFD1002B08BF0720DEF8001021F0DE
:103800000101CEF80010B0BD43F60C41C4F2020134
:103810000860704743F60C41C4F202010968084091
:1038200018BF01207047000043F61040C4F20200A8
:10383000016841F0004101607047000010B50121AE
:10384000CBF2000143F610428446C4F202024FF06C
:10385000060E0B4652F8040CC4030DD4C4050DD457
:1038600004060DD444060DD4C4065ABF80070EEAE0
:10387000E070052008E000BF012005E0022003E021
:10388000032001E0042000BF012803F1010301D15E
:10389000002BDFD1002B08BF0720002818BF10BD68
:1038A0004CF2D670CAF6B81050614CF0004010616E
:1038B0001068062320F0F8001060106840F0020045
:1038C0001060106840F48030106000BF52F8040CA3
:1038D000C4030DD4C4050DD404060DD444060DD480
:1038E000C4065ABF800703EAE070052008E000BF65
:1038F000012005E0022003E0032001E0042000BFD6
:10390000012801F1010101D10029DFD1136900294A
:1039100023F0004108BF07201161116821F0020166
:10392000116010BD43F60440C4F20200C168B1F159
:10393000FF3FC8BF704740F22311C4F267510160D6
:1039400048F6AB11CCF6EF5101607047B0B50123DA
:10395000CBF2000343F6104E8446C4F2020E062456
:103960001A4600BF5EF8040CC5030DD4C5050DD47E
:1039700005060DD445060DD4C5065ABF800704EAD6
:10398000E070052008E000BF012005E0022003E010
:10399000032001E0042000BF012802F1010201D14F
:1039A000002ADFD1002A08BF0720002818BFB0BDB9
:1039B000DEF8000020F44070CEF80000DEF80000D1
:1039C00040F40070CEF80000DEF8000040F0010086
:1039D000CEF80000CCF80010062100BF5EF8040C01
:1039E000C2030DD4C2050DD402060DD442060DD477
:1039F000C2065ABF800701EAE070052008E000BF58
:103A0000012005E0022003E0032001E0042000BFC4
:103A1000012803F1010301D1002BDFD1002B08BFE6
:103A20000720DEF8001021F00101CEF80010B0BD33
:04000005080001AD41
:00000001FF
