:020000040801F1
:1010000098540020E9110108AD1A0108A11901083E
:10101000A91A0108711801089523010800000000B1
:101020000000000000000000000000002D2001086A
:10103000751801080000000009200108C511010809
:101040000312010803120108031201080D20010810
:10105000031201080312010879180108031201089C
:101060000312010803120108031201080312010808
:1010700003120108031201080312010803120108F8
:1010800003120108031201080312010803120108E8
:1010900003120108031201080312010803120108D8
:1010A00003120108031201080312010803120108C8
:1010B00003120108031201080312010803120108B8
:1010C00003120108031201080312010803120108A8
:1010D0000312010803120108E922010803120108A2
:1010E0000312010803120108031201080312010888
:1010F0000312010803120108031201080312010878
:101100000312010803120108031201080312010867
:101110000312010803120108031201080312010857
:101120000312010803120108031201080312010847
:101130000312010803120108031201080312010837
:101140000312010803120108031201080312010827
:101150000312010803120108031201080312010817
:101160000312010803120108031201080312010807
:101170000312010803120108031201080000000015
:1011800003120108031201080312010803120108E7
:1011900003120108031201080312010800000000F5
:1011A000031201080312010803120108DFF810D02E
:1011B00000F0B8FA00F0A2F800480047BD56010858
:1011C0009854002030B410B50348804730BCAE4678
:1011D00030BC024800470000315B010831200108A3
:1011E00000BF70478546704706488047064800475D
:1011F000FEE7FEE7FEE7FEE7FEE7FEE7FEE7FEE7C7
:10120000FEE7FEE7C1200108AD1101082DE9F0411C
:101210000024061B254671F1000605DA012400278B
:10122000D0EB070067EB0101161E73F1000605DA2B
:101230000027D2EB0702012567EB030300F088F8D3
:1012400086460E4617469C46AC4204D00025D0EB9D
:10125000050E65EB010624B10020D2EB000760EB20
:10126000030C704631463A466346BDE8F08110B53E
:10127000431A934209D28318881803E010F8011D1D
:1012800003F8011D521EF9D210BD40EA01039B076D
:1012900003D009E008C9121F08C0042AFAD203E0EB
:1012A00011F8013B00F8013B521EF9D210BDD2B239
:1012B00001E000F8012B491EFBD270470022F6E73F
:1012C00010B513460A4604461946FFF7F0FF2046BC
:1012D00010BD421C10F8011B0029FBD1801A704779
:1012E00030B504460020034600E05B1C934203D265
:1012F000E05CCD5C401BF8D030BD00007CB50748F9
:101300000090074801900546009C04E020460168D3
:1013100008448047241DAC42F8D17CBD807C010884
:10132000847C010830B50B460146002020220124B0
:1013300009E021FA02F59D4205D303FA02F5491BA3
:1013400004FA02F52844151EA2F10102F1DC30BDB9
:101350002DE9F05F0546002092469B4688460646EA
:10136000814640241BE0284641464746224600F07D
:1013700000FA53465A46C01A914110D311461846F6
:10138000224600F0E7F92D1A67EB01084F46224686
:101390000120002100F0DEF917EB00094E41201E6C
:1013A000A4F10104DFDC484631462A464346BDE845
:1013B000F09F2DE9FE4F804681EA0300C00F0C46E6
:1013C000009021F0004123F00045B8EB0200A94154
:1013D00005D24046214690461C460B46024623F065
:1013E0000040104347D0270DC7F30A00C3F30A514A
:1013F0000290401A019040286BDAC3F3130040F4C6
:10140000801B0098924620B10023D2EB030A63EBC5
:101410000B0B01985946C0F14002504600F09AF972
:1014200006460D4650465946019A00F0B2F910EBB7
:1014300008006141002487EA115284EAE7731A43E5
:1014400040D0009A62B3019A012A4FEA075215DC94
:10145000001B61EB02014FF0004202EA0752CDE9A6
:101460000042001C41F5801132462B4600F0B2F9D3
:1014700003B0BDE8F08F40462146F9E7001B61EB61
:101480000201001C41F5801300185B412018A2F5F1
:10149000001747EB030140EAD570B6196D4111E022
:1014A0006D084FEA360645EAC0754FEA0752001B41
:1014B00061EB0201001C41F5801149084FEA300040
:1014C0000019514132462B4603B0BDE8F04F00F001
:1014D00072B90098012240000023D0EB020263EBB6
:1014E000E073009821464FEAE074B8EB000061EB2E
:1014F0000401E9E783F000435BE781F0004158E72E
:101500002DE9FE4F81EA030404F0004421F000417C
:1015100000944FF0000B23F0004350EA01045ED02A
:1015200052EA03045BD0C3F30A54C1F30A552C44B6
:10153000A4F2F3340194A0FB0254C1F3130141F46B
:101540008011C3F3130343F4801301FB024400FB37
:10155000034E840A970A44EA815447EA8357A4FB5E
:10156000076802958D0A05FB07854FEA932C04FB5B
:101570000C542705029D4FEA065847EA1637B5EB8B
:1015800008056EEB070C870E920E47EA811742EAB8
:101590008312A7FB0201B6EB0B0164EB00042B0DD9
:1015A00043EA0C335E1844EB1C50DA465146E7FB25
:1015B0000201C5F313044FEA0B3343EA14534FEA15
:1015C0000432019C43EA0603A4F10C040294009C3B
:1015D000CDE900B400F0FEF803B0BDE8F08F0020C4
:1015E0000146F9E72DE9F04D81EA030404F0004BD0
:1015F00021F0004514464FF0000A23F0004150EA64
:10160000050220D054EA01021DD0C5F30A57024654
:10161000C5F31303C1F31300C1F30A5640F4801558
:1016200043F48013A7EB0608101BD64608F2FD38DA
:1016300073EB050002D308F1010801E092185B4149
:10164000B8F1000F03DA00200146BDE8F08D00205C
:101650004FF48011064684460EE0171B73EB050716
:1016600005D3121B63EB050306434CEA010C490842
:101670004FEA300092185B4150EA0107EDD152EA7F
:10168000030012D082EA040083EA0501084305D072
:10169000101BAB4106D20122002306E000224FF0CE
:1016A000004302E06FF0010253101AEB06004CEB0E
:1016B000085110EB0A0041EB0B01BDE8F04D00F0C2
:1016C0007AB8C1F30A52C1F3130140F2FF3341F477
:1016D00080119A4202DA00200146704740F23343FB
:1016E0009A42A2F2334202DC524200F042B800F0C9
:1016F00031B8000030B5041E71F1000404DB4FF076
:101700000044404264EB0101141E73F1000405DB48
:101710001C464FF00043524263EB0403994208BF5A
:10172000904230BD1CB5094800900948019005461B
:10173000009C06E0E06840F0010394E80700984749
:101740001034AC42F6D3FFF735FD0000507C0108A1
:10175000807C0108202A04DB203A00FA02F10020F4
:1017600070479140C2F1200320FA03F319439040DF
:101770007047202A04DB203A21FA02F0002170474A
:1017800021FA02F3D040C2F12002914008431946E9
:101790007047202A06DBCB17203A41FA02F043EAD1
:1017A000E07306E041FA02F3D040C2F1200291401A
:1017B00008431946704710B5141E73F1000408DA87
:1017C000401C41F1000192185B411A4301D120F005
:1017D000010010BD2DE9F04D92469B4611B1B1FAC2
:1017E00081F202E0B0FA80F220329046FFF7B2FFB9
:1017F00004460F4640EA0A0041EA0B0153465A46A6
:10180000084313D0114653EA010019D0C8F1400231
:101810005046FFF7AEFF05460E4650465946424633
:10182000FFF798FF084305D0012004E02046394621
:10183000BDE8F08D0020054346EAE0762C433743AF
:101840000A986305E40AA0EB08000022FD0A44EAB6
:1018500047540A3002D500200146E9E70105101976
:101860006941DDE9084500196941BDE8F04DA2E78D
:10187000FEE70000FEE7000080B5012003F0F2FB68
:10188000002808BF80BD0120BDE8804003F0E4BB14
:10189000B0B540F2800CC2F2000C0E229CF8003071
:1018A0000D4602EA400203F0810465F30612224469
:1018B0008CF80020DA0300F007009CF8011042EADF
:1018C000003005F0070240EA422003F0800240EABF
:1018D000420001F0070240EA421001F0080240EA2B
:1018E0004200082202EA51021044062202EA1112C2
:1018F00042EAD111084380B204F0AEFD062D08D8AB
:1019000047F26C31C0F6010101EB850191ED000A4F
:1019100001E09FED070A00B201EE100AB8EEC11A0D
:101920009FED042A20EE010A20EE020AB0BD00BF9E
:101930006F1203400000003810B540F28004C2F27C
:1019400000044AF22820208043F20040C4F2010043
:1019500004F07CFD20786178C0F34202120342EA71
:10196000C032C0F3021342EA432200F0800042EA90
:10197000400001F0070240EA421001F0080240EA8C
:101980004200082202EA51021044062202EA111221
:1019900042EAD111084380B2BDE8104004F05CBDBA
:1019A000FEE70000B0B540F20044C4F20204204655
:1019B000012100224FF44073002503F00FFD204663
:1019C000002102224FF4407303F032FD20464FF411
:1019D000407103F001FD0A2004F016F820464FF490
:1019E000807103F0F7FC052004F00EF820464FF458
:1019F000807103F0F1FC052004F006F8082D05F1D4
:101A00000105EBD320464FF4807103F0E5FC20463E
:101A10004FF4007103F0DEFC052003F0F5FF2046D3
:101A20004FF4007103F0D8FC052003F0EDFF2046D1
:101A3000022101224FF4007303F0D0FC2046012163
:101A400002224FF4007303F0F3FC2046022101222E
:101A50004FF4807303F0C2FC2046012102224FF4B0
:101A6000807303F0E5FCA4F5D834204603F076FD3E
:101A700041F68021C0F206012046002203F002FD5B
:101A8000204600210022722303F0C2FD204603F00D
:101A900095FD20464FF4806103F0EEFC0A20BDE87E
:101AA000B04003F0B1BF0000FEE70000FEE7000019
:101AB000B0B5002444F0B000C0B200F0DDF8002062
:101AC000002500F0D9F8102000F0D6F8002000F032
:101AD000B7F9681C45B2B5F1FF3FF7DCE0B201345D
:101AE000032828BFB0BDE5E780B58D2000F0C4F81D
:101AF000102000F0C1F8AF20BDE8804000F0BCB875
:101B000070B5642003F080FF40F20805C2F20005C2
:101B100040F236042878C2F200040121217000F05E
:101B2000ABF8207888B30126162E0AD0A85D00F005
:101B3000A3F8207801360028F6D1B01E152838BF4A
:101B400070BD002444F0B000C0B200F095F8002051
:101B5000002500F091F8102000F08EF8002000F031
:101B60006FF9681C45B2B5F1FF3FF7DCE0B2013414
:101B70000328E7D3B02000F07FF8102000F07CF8B5
:101B80000020BDE8704000F077B870BD2DE9F0414D
:101B900001EBD0181E4643B2A8F15000C0B2A2F12A
:101BA000200723EAE37500F067F8102040EA1514D7
:101BB000204600F061F805F00F05284600F05CF8BB
:101BC000102EF8B223D147F2B051C0F6010101EB5B
:101BD00000164FF0FF3700BFF019407800F030F9E1
:101BE0000137072FF8D1A8F14F00C0B200F044F838
:101BF000E0B200F041F8284600F03EF8F41D082558
:101C000014F8010F00F01CF9013DF9D111E047F281
:101C1000883100EB4000C0F6010101EB40044FF0B9
:101C2000FF3500BF6019407800F00AF90135052D35
:101C3000F8D1BDE8F08100002DE9F0411546127899
:101C4000002A08BFBDE8F08198460E4607460024EA
:101C5000F8B2F1B2D2B24346FFF798FF0837F8B2B4
:101C600001347828E0B288BF02362A5C88BF00279A
:101C7000002AEDD1BDE8F0812DE9F04140F23608AF
:101C8000C2F2000898F80010002900F0CD8045F25B
:101C9000004440F2C401C4F20004C2F20001002278
:101CA0000A704870204640F2016103F0A1FC002850
:101CB00018BFFFF777FE204640F2016103F098FC61
:101CC00080B14DF6F005CFF6FF752F46013749D2AA
:101CD000012003F099FE204640F2016103F088FCE8
:101CE0000028F3D147F65F162046CFF6FE7603F0C4
:101CF0009DFC3546013580F0928020464FF4A0616E
:101D000003F076FC0128F5D1002D00F088802046F4
:101D100078216FF0010203F073FC3546013512D2D1
:101D2000204640F2015103F063FC012829D02046EF
:101D300040F20A5103F05CFC0128EFD1204640F24A
:101D40000A5103F041FC204603F076FC4DF6F0000A
:101D5000CFF6FF70013800BF013060D221688905DD
:101D6000FAD45CE0FFF71EFE204640F2016103F06A
:101D70003FFC0028B6D0013556D2012003F044FEC6
:101D8000F2E7204640F2015103F01EFC354600BF49
:101D9000013544D2204640F2075103F029FC0128C6
:101DA000F6D1E5B304F5033540F2C403C2F20003F3
:101DB00028460621002203F09BF82846062102222D
:101DC00003F0F0F820464FF4006103F0F1FB2846E1
:101DD000062103F00BF83746013727D228460621A3
:101DE000202203F071F80128F6D1FFB12846062120
:101DF000202203F04DF82846062102F0EDFF204690
:101E0000002103F0D5FB204603F016FC013606D274
:101E100020688005FAD4002E18BFBDE8F081FFF7D6
:101E2000C1FD002088F80000BDE8F08128460621A9
:101E300002F0D2FF2046002103F0BAFBEFE70000DA
:101E40002DE9F04140F23608C2F2000898F800107F
:101E5000002900F0CD8045F2004440F21E01C4F29A
:101E60000004C2F2000140220A704870204640F28D
:101E7000016103F0BDFB002818BFFFF793FD20466A
:101E800040F2016103F0B4FB80B14DF6F005CFF6EE
:101E9000FF752F46013749D2012003F0B5FD2046DA
:101EA00040F2016103F0A4FB0028F3D147F65F166E
:101EB0002046CFF6FE7603F0B9FB3546013580F0BB
:101EC000928020464FF4A06103F092FB0128F5D1E7
:101ED000002D00F08880204678216FF0010203F089
:101EE0008FFB3546013512D2204640F2015103F0F6
:101EF0007FFB012829D0204640F20A5103F078FBED
:101F00000128EFD1204640F20A5103F05DFB204644
:101F100003F092FB4DF6F000CFF6FF70013800BFE2
:101F2000013060D221688905FAD45CE0FFF73AFD00
:101F3000204640F2016103F05BFB0028B6D001357A
:101F400056D2012003F060FDF2E7204640F2015135
:101F500003F03AFB354600BF013544D2204640F23B
:101F6000075103F045FB0128F6D1E5B304F503352D
:101F700040F21E03C2F2000328460621002202F0AE
:101F8000B7FF28460621022203F00CF820464FF442
:101F9000006103F00DFB2846062102F027FF3746BB
:101FA000013727D228460621202202F08DFF012882
:101FB000F6D1FFB128460621202202F069FF28460B
:101FC000062102F009FF2046002103F0F1FA204625
:101FD00003F032FB013606D220688005FAD4002EC9
:101FE00018BFBDE8F081FFF7DDFC002088F8000095
:101FF000BDE8F0812846062102F0EEFE20460021D1
:1020000003F0D6FAEFE70000FEE7000080B54FF4DA
:10201000806004F059F818B14FF4806004F04AF879
:102020004FF48000BDE8804003F016B8FEE70000E2
:1020300002F0C6BE80B543F60400C4F20200416857
:10204000C1F3810242F20041022AC0F2F40106D03B
:10205000012A1ED147F64001C0F27D1119E0026845
:10206000036802F03F0EC3F3881C03680268C3F3E1
:102070000143520247F64002C0F27D1258BF0A46A1
:10208000B2FBFEF2022101EB430102FB0CF2B2FBB8
:10209000F1F140F20402C2F200021160406804A1B2
:1020A000C0F30310085C116821FA00F0106080BDD5
:1020B00000000000000000000102030406070809F8
:1020C00082B04EF68851CEF200010A6843F608004D
:1020D00042F47002C4F202000A6050F8081C41F099
:1020E000010140F8081C00BF50F8081C8907FBD507
:1020F000016801F00C01082966D100210191019AC3
:102100004F2A05D8019A01320192019A502AF9D337
:1021100002680092009A22F0F0020092009A42F0C7
:1021200080020092009A0260019101994F2905D81E
:1021300001990131019101995029F9D30168009168
:10214000009921F0F0010091009941F09001009177
:102150000099016000210191019A4F2A06D800BF21
:10216000019A01320192019A502AF9D30268009231
:10217000009A22F0F0020092009A42F0A00200922F
:10218000009A0260019101994F2905D80199013106
:10219000019101995029F9D301680091009921F02A
:1021A000F0010091009941F0B001009100990160A7
:1021B0000021019101994F2906D800BF01990131F1
:1021C000019101995029F9D301684FF0000C21F0D9
:1021D00003010160CDF804C0019A12097C2A06D8D7
:1021E000019A01320192019AB2F5FA6FF8D350F8D0
:1021F000082C4FF6FF73CFF6F6631A4040F8082C10
:1022000050F8082C22F4802240F8082CC0F800C0B6
:10221000026843F21002C2F2004240F8042CC0F8F7
:1022200004C050F8082C42F4803240F8082C4FF6D5
:10223000FE7200BF50F8081C013A4CF100038903FC
:1022400002D4002BF6D100BF50F8081C8903FBD53F
:10225000826B47F2000142F08052C4F200018263B7
:102260000A6842F440420A6002680260026842F46E
:1022700000420260026842F4A052026047F619026E
:10228000C0F6402240F8042C50F8082C42F080722E
:1022900040F8082C50F8082C9201FBD50A6842F44B
:1022A00080320A604A68D203FCD50A6842F40032E0
:1022B0000A6000BF4A689203FCD501680191019948
:1022C00021F003010191019941F00201019101996D
:1022D000016000BF01680907FCD54FF000604FF4B2
:1022E000883102B003F080BA70B546F20004C4F23F
:1022F0000204A4F5073540F20431C0F20401284677
:1023000004F03CFB002808BF70BD284604F094FA96
:102310002046052102F04CFEB0F5807F1CD0C0F5B0
:102320008075B5F5807F17D840F2E006C2F200064E
:10233000307888B940F2E40043F29531C2F20000EF
:10234000C2F200012A46FEF792FF40F2E410C2F208
:10235000000005800120307043F29530C2F2000089
:102360004FF48071FEF7AAFF2046052102F034FDEC
:1023700020460521202202F08BFD204605214FF446
:10238000807202F00FFE20460521BDE8704002F089
:102390002DBD0000FEE700004EF60C50BFF34F8F3E
:1023A000CEF200000168042201F4E061C0F2FA52AA
:1023B00011430160BFF34F8F00BFFDE7B0B540F29E
:1023C0008805EFF3108472B6C2F20005012028766A
:1023D00003F092FB03F06EFB84F3108804F074F9B1
:1023E0000020C5E90000C5E90200BDE8B04000F0EA
:1023F00001B8000070470000816841F00801816069
:1024000081680907FCD4816841F00401816000BF44
:1024100081684907FCD4704780B502290AD0012998
:102420001CD1511E102919D24FF4700E6FF4700C8C
:102430002C2308E0511E032988BF80BD4FF4401EA5
:102440006FF4401C3823195801EA0C0119500EEBA7
:1024500002511A5801EA0E011143195080BD0000C3
:1024600042F20431C4F201010A6822F4E0220A6057
:102470000A681043086070478268002922F40062ED
:1024800018BF02F50062826070470000816821F089
:102490000101816070470000816821F480718160D2
:1024A00070470000816841F48071816070470000CE
:1024B000816841F400718160704700008168C9073C
:1024C00018BF7047816841F00101816070470000CA
:1024D000012907D0022918BF70474FF0140C6FF480
:1024E000401303E04FF01C0C6FF04053816802FA78
:1024F0000CF21940816081681143816070470000CF
:10250000012905D0022918BF70476FF4702101E03E
:102510006FF0706183681940816081681143816048
:102520007047000010B5052904D800F1340C01EB08
:10253000810E10E00B2906D801EB810100F1300C6F
:10254000A1F11E0E07E00F2910D801EB810100F167
:102550002C0CA1F13C0EDCF800101F2404FA0EF440
:10256000A14302FA0EF42143CCF80010092A03D843
:10257000103002EB420106E0122A88BF10BD02EBC8
:1025800042010C301E39026807248C40A24303FA32
:1025900001F11143016010BD012905D0022918BFC6
:1025A00070474FF4800101E04FF080418268114391
:1025B0008160704732B1CA0518D44A051CD4890716
:1025C00020D47047CA0503D5426822F48072426065
:1025D0004A0503D5426822F480624260890758BFE9
:1025E0007047816821F0020181607047426842F4BF
:1025F000807242604A05E2D5426842F480624260DD
:102600008907DED5816841F00201816070470000D2
:1026100042F20431C4F201010A6822F01F020A608A
:102620000A6810430860704780B501F027F9BDE8DB
:10263000804000F021BF0000002908BF7047F0B5BE
:1026400081B02DED048B9CB0F4EE400A0025F1EE34
:1026500010FAC8BF012552DD0A78002A4FD10E4674
:10266000B0EE608AB0EE409A044602F043F88DF86E
:10267000044041F2FC14C2F20004A768009000205C
:10268000ADF805008DF807008DED029A8DED038AF7
:1026900057B13846092F28BF0920020104F11C0058
:1026A00004F10C01FEF7E3FD9DE80F0004F10C0CB2
:1026B0008CE80700092FA3619CBF781CA06000F084
:1026C00029F840F22100C2F200000078012815D15B
:1026D00004AC6846214602F0CFFC2046FEF7F9FD27
:1026E0002318C0F160010AA2184604F075F92046CB
:1026F000FEF7EFFD81B2204603F07CFC31460D7001
:102700001CB0BDEC048B01B0BDE8F040704700BFC9
:102710000D0A000070B548F2203641F2FC144FF06B
:10272000FF300021CEF6B856C2F20004625C504081
:10273000082200BF034686EA5000DD0708BF58089C
:10274000013AF7D10131AC29F0D140F2FC15C04378
:10275000C2F200050021C4F8AC00C0F60101284611
:102760004FF48052FEF783FD05F540602146B42208
:10277000FEF77DFD04F020F978B340F60040C0F686
:102780000100026844F64351C4F24C118A4224D13C
:102790004268B2F1011F20D1D0F8B02011318A4235
:1027A0001BD181680A2918D8D0F8ACC04FF0FF328D
:1027B000002300BFC55C6A40082500BF144686EAB6
:1027C0005202E10708BF6208013DF7D10133AC2B8B
:1027D000F0D182EA0C01013101D0002070BD41F23C
:1027E000FC11C2F20001B422FEF77AFDB0FA80F0CB
:1027F000400970BD70B5EFF3108472B603F0B6F9FE
:1028000003F0ACF940F28806C2F2000688B103F08A
:1028100051F903F069F9EFF3108272B6D6E9003589
:10282000C0186941013041F10001C6E9000182F39D
:10283000108802F045FDC6E9000103F033F984F386
:10284000108870BD10B542F20004C4F201042046A5
:10285000FFF71CFE2046FFF71FFE04F5A2300421FF
:10286000BDE8104002F0B8BA2DE9F0418AB040F658
:10287000024003F085FB41F2081003F081FB40F6B3
:10288000164003F07DFB4FF44030FFF7E9FD42F2C4
:102890000004C4F2010404F568452846032100221F
:1028A000012300264FF0010802F098FD284603217D
:1028B00000220223022702F091FD04F5A2352846EA
:1028C000042102F0BDFA04F14C00CDE9010840F208
:1028D000AC00C2F20000CDE903064FF400600590A1
:1028E0004FF40030099001AA28460421CDE907677A
:1028F00002F008FB28460421002202F081FA284653
:10290000042102F093FA2846042102F06FFA002015
:10291000FFF77EFE204602210122FFF74BFE2046F4
:102920004FF480710122FFF745FE20460021FFF79A
:10293000A3FD204601210222FFF76EFD2046002163
:102940000A220123FFF7EEFD204601210B2201237D
:10295000FFF7E8FD204601210022FFF7D1FD2046C8
:1029600001210022FFF7B4FD2046FFF7A1FD20461C
:10297000FFF798FD2046FFF7A1FD012002F016FAAF
:102980002046FFF739FD20460121FFF705FE0AB07A
:10299000BDE8F08110B540F6014003F0F1FA40F6D1
:1029A000044003F0EDFA4FF4406003F0E9FA00242C
:1029B000C4F2020404F580500021012248F6D0033D
:1029C00002F00CFD04F5806000210122012302F0D9
:1029D00005FD2046002101220123BDE8104002F040
:1029E000FDBC000010B547F20044C4F200042046CC
:1029F000002102F093F92046002102F09DF904F530
:102A0000F630052102F0E8F9A4F5C840BDE8104011
:102A100003F034BE10B54FF4406003F0B1FA41F258
:102A20001D0003F0ADFA47F20044C4F2000404F5BF
:102A3000C63003210022102302F0D0FC204602F011
:102A40005BF92046002102F091F920460021002286
:102A500002F09AF92046002102F07CF940F2B00021
:102A6000C2F200000388204600210022BDE8104089
:102A700002F032B910B5044641F21C0003F080FAAE
:102A800072B600F071FB00F077F900F047F8FFF73D
:102A9000D9FEFFF7A7FF00F0B7F800F08BFB204648
:102AA00000F07EFA002003F075F8012003F072F8C0
:102AB000FFF7A0FE4EF21000CEF2000001680022E7
:102AC00021F00201016062B601204FF4402103F0C1
:102AD00071F800F09FFAFFF7F3FA4EF6085041F252
:102AE0000001CEF20000C0F601010160FFF7A2FA7A
:102AF00003F09EFD03F0E8FD00F012F9FFF74AFF36
:102B000000F050FB00F056F9FEF7FAFFFFF7ACFEBD
:102B1000FFF780FFBDE8104000F022B8B0B543F2E7
:102B20000044C4F2010404F55C404FF4806102F0FB
:102B300053FC2046012103F073FC2046002103F0E2
:102B40006FFC04F598352846002102F045F9284627
:102B5000012102F041F92046BDE8B04003F05ABC23
:102B600070B588B040F6044003F00AFA40F604401D
:102B700003F006FA41F20D1003F002FA40F6164097
:102B800003F0FEF941F20004C4F2020420460521DC
:102B90004FF4E04202F0E6FB2046022100224FF40F
:102BA000E043002502F01AFC2046002102224FF4E7
:102BB000E04302F03DFC2046012100224FF48063F7
:102BC000012602F00BFC2046002102224FF4806314
:102BD00002F02EFC20464FF4806102F0FDFB4FF422
:102BE000827001904FF40070049010200790A4F5BB
:102BF0005C4001A9029503950696059503F0BCFC7F
:102C0000FEF79AFE08B070BDF0B581B04FF4406099
:102C100003F0B6F940F6014003F0B2F940F6024085
:102C200003F0AEF940F6034003F0AAF940F6044081
:102C300003F0A6F940F62840C4F202004FF4806188
:102C400001604FF4006101604FF4805101604FF466
:102C5000005101604FF4804101604FF4004100F5E4
:102C60007675016028460321002248F6D00302F061
:102C7000B5FB0024C4F2020404F58066304603214B
:102C80000022012302F0AAFB04F540673846032125
:102C90000022202302F0A2FB384603210022402319
:102CA00002F09CFB3046032100224FF4407302F0F7
:102CB00095FB2846032100224FF4E04302F08EFBEF
:102CC0002846012100224FF4806302F087FB28464A
:102CD000002100224FF4806302F0AAFB28464FF443
:102CE000806102F079FB04F500652846032100228B
:102CF000012302F073FB284603210022022302F085
:102D00006DFB204603210022102302F067FB2046C2
:102D100000210122012301B0BDE8F04002F05EBBBA
:102D2000B0B540F6034003F02BF940F62845C4F255
:102D30000205A5F128042046012101224FF47C431D
:102D400002F04CFB2046002102224FF47C4302F0AB
:102D50006FFB4FF4806028604FF4006028604FF4F0
:102D6000805028604FF4005028604FF48040286065
:102D70004FF400402860B0BD10B5FEF7B5FE45F237
:102D80000044C4F200042046002102F011FC04F5C6
:102D90000330062102F020F8204602F003FC04F57F
:102DA000D830032100224FF44073BDE8104002F0F8
:102DB00015BB00002DE9F04389B040F6014003F057
:102DC000DFF841F2150003F0DBF840F6154003F0A0
:102DD000D7F840F20044C4F20204204604214FF424
:102DE000007202F0BFFA204604214FF4807202F014
:102DF000B9FA2046022101224FF400734FF0020875
:102E00004FF0010902F0EAFA2046012102224FF4B4
:102E1000007302F00DFB2046022101224FF4807363
:102E200002F0DCFA2046012102224FF4807302F006
:102E3000FFFAA4F5D83541F68021C0F206012846F4
:102E40000022002702F01EFB2846002100227223E8
:102E500002F0DEFB284602F0B1FB28464FF4806109
:102E600002F00AFB04F5B8452846062101F0E8FF08
:102E70006E46304602F08AF84020069040F21E006E
:102E8000C2F20000CDE90207A4F5D030A0F57F60C2
:102E9000CDE900094FF4403008902846062132461B
:102EA0000497CDF81C8002F02DF82846062101F089
:102EB000B3FF28460621012201F0A2FF09B0BDE8B8
:102EC000F083000070B542F6500441F21C00C4F2D9
:102ED000000403F055F802F053FE4FF4E05002F006
:102EE0005DFF4FF4E05002F069FF4FF4807003F093
:102EF00077F840F2DC05C2F20005FF2040F2D80668
:102F00002860C2F200067F20306041F60F4003F0D7
:102F100037F803F09BF943F67000C4F20200006832
:102F200040F2A801C0F30120C2F20001086021684C
:102F300043F2F022914207D130B141F61B5002F02A
:102F40001FFF08B3012427E0316840F2E810C2F205
:102F50000000018129684181262101700421C1708E
:102F600040F20111A0F801100021C0E90311818095
:102F7000817103F0B3F820B143F2F0202060002407
:102F80000AE04FF0FF3407E041F61A5002F0F8FE75
:102F9000002818BF0120440002F08AFE204670BDC0
:102FA000002808BF704710B5044641F21C0002F02B
:102FB000E7FF02F0E5FD41F60F4002F0E1FF03F00C
:102FC00045F94FF4804003F00FF903F08FF94FF407
:102FD000806003F06FF84FF4800002F03DF80420A9
:102FE00003F060F9601E80B203F0B4F94FF4800082
:102FF0000021002201F0E2FF4FF4804003F00EF9BF
:1030000003200121002202F0A5FBBDE8104003F0DF
:103010008FB9000080B54FF4804003F0E5F803F06D
:1030200065F94FF4806003F045F84FF4800002F03A
:1030300013F80320BDE8804002F076BBF0B589B0FC
:1030400040F23C06002808BF4FF49640C2F200064A
:10305000306040F6154002F093FF40F6034002F066
:103060008FFF40F6044002F08BFF41F2110002F0A6
:1030700087FF46F20005C4F202052846052101F04B
:10308000DFFE43F2953144F200440020C2F2000119
:10309000C4F20004CDE90210211D06900091012127
:1030A00004904FF440304FF48077019108906A46C5
:1030B00028460521079701F025FF2846052101F044
:1030C000ABFE28460521042201F09AFE2846052180
:1030D00001F08CFE04F5E43528460721602202F059
:1030E00041F9284602210122602302F077F928469F
:1030F00000210222602302F09BF904F5E635284600
:10310000012100224FF4807302F068F92846002163
:1031100002224FF4807302F08BF941F22800C4F2CE
:1031200002000760204603F08FFB3168204603F061
:1031300023FB2046042103F033FC2046082103F042
:1031400035FC2046402103F0E9FB204603F0F0FB6C
:1031500026200021002202F0FDFA20464FF44171A2
:1031600003F000FC09B0F0BD10B544F20044C4F215
:10317000000420464FF4417103F0E8FB262002F0E2
:10318000D3FA2046002103F0C9FB04F507300521DE
:1031900001F022FE2046BDE8104003F0B9BB00005C
:1031A000FFF74CBF40F23C00C2F200000068FFF79E
:1031B00045BF000080B54FF4406002F0E1FE41F2EF
:1031C0000E1002F0DDFE0020C4F2020000210122F8
:1031D000012302F003F90020002103F0E7F90120A8
:1031E0000021022201F0EAFE012001F035FF062055
:1031F00001210022BDE8804002F0ACBA2DE9F04F79
:1032000099B080B38B4671B30446002041F2FC1A9A
:103210002070C2F2000ADAF8080038B3DAF80800C1
:1032200008B30AF10C0600250DF104094FF000085F
:103230003046494601F020FFABEB080704EB0800DD
:10324000394612A24B4603F0C7FB002816D4B842F9
:1032500014D2082D07D88044DAF8080001358542D9
:1032600006F11006E4D319B0BDE8F08F09A220469C
:10327000594619B0BDE8F04F03F0AEBB04EB0B00AC
:10328000002100F8011C19B0BDE8F08F25730D0A6C
:1032900000000000656D7074790D0A0070B52DEDA9
:1032A000028B41F2FC16C2F200063046B421FEF752
:1032B00005F844F64350C4F24C104FF00111C6E932
:1032C0000001113048F22032C6F8B0004FF0FF3054
:1032D0000021CEF6B85200BF735C5840082300BFEF
:1032E000044682EA5000E50708BF6008013BF7D1B9
:1032F0000131AC29F0D1C043C6F8AC0000F072F93E
:10330000B0EE408A00F066F942F25031B4EE408AE5
:103310000020C2F200010024F1EE10FAC8BF012023
:10332000087000F079F9B0EE408A00F06DF942F2D1
:103330005130B4EE408AC2F20000F1EE10FAC8BF7C
:1033400001240470BDEC028BBDE87040FFF7E2B9C8
:10335000F0B581B040F60040C0F60100016844F6C7
:103360004357C4F24C1748F22035B942CEF6B8554F
:1033700025D14168B1F1011F21D1D0F8B01007F17A
:10338000110291421BD181680A2918D8D0F8ACC02B
:103390004FF0FF32002300BFC45C6240082400BF2E
:1033A000114685EA5202CE0708BF4A08013CF7D110
:1033B0000133AC2BF0D182EA0C00013037D041F25E
:1033C000FC14C2F200042046B421FDF777FF4FF051
:1033D0000110C4E9007007F11100C4F8B0004FF00B
:1033E000FF300021625C5040082200BF034685EA9E
:1033F0005000DF0708BF5808013AF7D10131AC2966
:10340000F0D1C043C4F8AC0040F22100C2F2000089
:103410000221017042F25030C2F20000002101701E
:1034200042F25130C2F20000017001B0F0BD41F231
:10343000FC1040F60041C2F20000C0F60101B422C7
:10344000FDF715FFE0E70000411E01290FD840F20B
:103450002102C2F20002107042F25030C2F20000AB
:103460000022027042F25130C2F2000002700020CD
:10347000022938BF0120704780B52DED028B00F086
:10348000A9F8B0EE408A00F0ADF842F25031F0EE0B
:10349000400AC2F200010020B0EE480AFFF7CCF863
:1034A00000F0B2F8B0EE408A00F0B6F842F25131C6
:1034B000F0EE400AC2F200010120B0EE480ABDEC75
:1034C000028BBDE88040FFF7B7B8000041F24C30F6
:1034D000C2F200000078012816D180B501F0F0FE9C
:1034E00002F088FA42F25C31C2F2000140F2380385
:1034F0000A68C2F200031B68821A9A42BDE8804043
:1035000022BF0860012070470020704741F24C3014
:10351000C2F200000078704780B541F24C30C2F230
:1035200000000121017001F0CBFE02F063FA42F2CB
:103530005C31C2F20001086080BD000041F24C30F5
:10354000C2F200000021017070470000002808BF8F
:10355000704710B5044601F0CDF8010E2170010C42
:103560006170010AA17040F2AC01C2F200010A8848
:10357000E07040F22400C2F2000000EE102A90ED4C
:10358000001AB8EE400A21EE000A10EE100A00BA46
:103590004988606040F22C00C2F2000000EE101A70
:1035A00090ED001AB8EE400A21EE000A10EE100A63
:1035B00000BAA060BDE8104070470000006800BA83
:1035C00000EE100A7047000010EE101A09BA0160F0
:1035D0007047000040F22800C2F2000090ED000A9F
:1035E0007047000040F2AC00C2F20000008800EE1C
:1035F000100A40F22400C2F2000090ED001AB8EE6A
:10360000400A21EE000A704740F23000C2F200008A
:1036100090ED000A7047000040F2AC00C2F20000DA
:10362000408800EE100A40F22C00C2F2000090ED3B
:10363000001AB8EE400A21EE000A704742F25430F8
:10364000C2F2000090ED000A7047000010B500F0D3
:10365000C7F9041D40F224011CCCC2F200010A602B
:1036600040F22C01C2F200010B6040F22801C2F2CC
:10367000000100690C6040F23001C2F200010860F4
:1036800042F25430C2F200000024046000F0AEF9AF
:103690000346B4EB103F40F2B000C2F2000018BF86
:1036A0000023038047F20040C4F200000021002202
:1036B00001F012FB40F23800C2F200004FF47A71C0
:1036C000016001F0FDFD02F095F942F25C31C2F2B9
:1036D0000001086041F24C30C2F20000047010BDDD
:1036E00080B52DED028B40F22C00C2F20000D0ED2F
:1036F000000A40F22800C2F2000090ED001A40F2E9
:103700003000C2F20000D0ED001AB0EE408A00F0A6
:10371000C7FA00281EBF40F22401C2F2000181ED69
:10372000008ABDEC028B80BD80B52DED028B40F28E
:103730002400C2F2000090ED001A40F22C00C2F208
:103740000000D0ED000A40F23000C2F20000D0EDDF
:10375000001AB0EE408AB0EE410AB0EE481A00F00E
:103760009FFA00281EBF40F22801C2F2000181ED3D
:10377000008ABDEC028B80BD80B52DED028B40F23E
:103780002400C2F2000090ED002A40F22800C2F2AC
:10379000000090ED001A40F23000C2F20000D0EDBF
:1037A000001AB0EE408AB0EE420AF0EE480A00F08D
:1037B00077FA00281EBF40F22C01C2F2000181ED11
:1037C000008ABDEC028B80BD80B52DED028B40F2EE
:1037D0002400C2F2000090ED002A40F22C00C2F258
:1037E0000000D0ED000A40F22800C2F2000090ED87
:1037F000001AB0EE408AB0EE420AF0EE481A00F02D
:103800004FFA00281EBF40F23001C2F2000181EDE4
:10381000008ABDEC028B80BD10B504460020B0EBE1
:10382000143F18BF10BD204600F0B2F9002804BFB5
:10383000002010BD40F2B000C2F20000048047F248
:103840000040C4F2000000210022234601F044FAA7
:10385000012010BD0138C1B202290AD84FF47A7094
:103860004FF4FA6211FB020040F23802C2F2000289
:1038700010600020032938BF0120704780B5042064
:103880000221FEF705F89FED491A9FED4A2A80EEC6
:10389000010A9FED471A47F6D832C0F6010230EE12
:1038A000010A80EE020A9FED441A9FED452A80EE40
:1038B000010A9FED421A20EE010AB4EE420AF1EE2F
:1038C00010FA23DD9FED3F1A02F15000B4EE410AD9
:1038D000F1EE10FA02F1480C1BDA002303E000BFFE
:1038E0000833502B15D0D11891ED001AB4EE401AC0
:1038F000F1EE10FAF4DC91ED021AB4EE401AF1EE9A
:1039000010FAEDDB01F108000A4603E002F10800BD
:1039100000E0624690ED002A92ED003A92ED011A25
:10392000B4EE432AF1EE10FA0DD090ED014A30EEDC
:10393000430A34EE414A20EE040A32EE432A80EE76
:10394000020A31EE001A9FED200A9FED212A81EE36
:10395000000AB7EE001A30EE010A9FED1C1A20EEA5
:10396000010A30EE021AB5EE401AF1EE10FA02DA50
:103970009FED180A0EE0B1EEC10AB4EE400AF1EE76
:1039800010FA0ED69FED141A9FED142A30EE010A9C
:1039900080EE020A42F25430C2F2000080ED000ACA
:1039A00080BDB0EE410A03F04BF8EBE7CDCCCCBFC5
:1039B0001058E93F1D5A204172F97F3F00007A44B8
:1039C0000000A1425CCF19430000C8C27F051B362E
:1039D0006622803700C079C4321180BB7F059BB559
:1039E00043F26030C2F200007047000042F25830EB
:1039F000C2F2000000887047B0B540F6000EC0F675
:103A0000010EDEF8000044F64351C4F24931884209
:103A100029D1DEF80400B0F1011F24D1DEF8200026
:103A200045F24D21C5F2410188421CD148F22032B5
:103A3000DEF81CC0CEF6B8524FF0FF33002100BFB5
:103A40001EF80100434008201C4682EA5303E507A4
:103A500008BF63080138F7D101311C29F0D183EA8E
:103A60000C00013052D043F26030012148F20003D3
:103A7000C2F20000C0F213014FF07E52C4F23B5379
:103A8000C0E90012C0E902230361DEF8001144F22C
:103A90003130C4F24140814231D1DEF80411B1F13C
:103AA000011F2CD1DEF81011013081424FF00001CE
:103AB00026D1BEF80801B1EB103F21D148F22032E7
:103AC000DEF80CC1CEF6B8524FF0FF330EEB01001A
:103AD00090F80001434008201C4682EA5303E507A2
:103AE00008BF63080138F7D101310C29EED183EA10
:103AF0000C0001300CBFBEF80811002100E00021CD
:103B000042F25830C2F200000180B0BD40F6080019
:103B1000C0F60100006840F60C0140F6100240F6C5
:103B2000140340F6180543F26034C0F60101C0F6F4
:103B30000102C0F60103C0F60105C2F200040968E3
:103B400012681B682D682FC49FE7000070B586B00F
:103B500043F26036C2F2000696E83E000DF1040C16
:103B60008CE83E00A0F1150111F1040F4FF00004A4
:103B70000BD38DF8060001A88DF8074001F0A4FED4
:103B800018B101AD2FCD01242FC6204606B070BD5F
:103B90002DE9F04786B00025B5EB103F74D142F215
:103BA0006036C2F200060021824648F2203744F215
:103BB0003138C0F6010130464FF48052CEF6B85786
:103BC000C4F24148FDF753FB4FF0FF304FF00111B5
:103BD000CDE90300029108F1010901A9CDF80480A3
:103BE000ADF80CA0ADF80E50CDF814904A5D5040E1
:103BF000082200BF034687EA5000DC0708BF5808C8
:103C0000013AF7D101350C2DF0D1C043049001AB3E
:103C10000ECB059D06F5106C8CE80E00C6F80C095D
:103C2000C6F8105902F0CDFE68B340F60010C0F699
:103C300001000168414526D14168B1F1011F22D13F
:103C4000016949451FD101890022B2EB113F1AD108
:103C5000C1684FF0FF320023C65C7240082600BFE7
:103C6000154687EA5202EC0708BF6A08013EF7D101
:103C700001330C2BF0D15140013104D101A91422A0
:103C8000FDF72EFB20B10025284606B0BDE8F087E1
:103C900042F25830C2F20000A0F800A00125F3E77C
:103CA00010B586B043F26034C2F20004206801907F
:103CB00002A880EC040A00208DF8070001A801F09A
:103CC00003FE28B10DF1040E9EE80E5084E80E505C
:103CD00006B010BD70B586B043F26036C2F2000681
:103CE00096E83E000DF1040C8CE83E00411C89B2C0
:103CF00002294FF000040BD3ADF8040001A88DF8A1
:103D0000074001F0E1FD18B101AD2FCD01242FC610
:103D1000204606B070BD000080B5FFF761FE008848
:103D200040F23401C2F20001088041F24A30C2F28E
:103D300000000021018080BD002808BF70472DE9E8
:103D4000F0470D46002948D041F24A3A41F2B028E6
:103D500009260446C2F2000A4FF00009C2F2000828
:103D60000127C0F240060BE0FF204EF6EE61002274
:103D70000023AAF8009000F033F800BF013D2CD0DA
:103D800014F8010BA0F10A01162903D807FA01F172
:103D90003142F3D1A0F13001CAB20A2A10D3A0F106
:103DA0004101C9B2052902D8A0F1370108E0A0F10C
:103DB0006101C9B206294FF0FF3138BFA0F15701A8
:103DC000C9B2FF29D0D0BAF800109A29CCD24A1C27
:103DD000AAF8002008F80100D0E7BDE8F0477047D6
:103DE000402B01D812B90BB100207047F0B5BBB021
:103DF00040F23404C2F2000424884BF2A5658DF829
:103E0000A300080AADF89F50250A8DF8A4000220EF
:103E10000DF19F078DF8A1508DF8A2408DF8A510E7
:103E20008DF8A6308DF8A70053B107F109001146AF
:103E30001A461C46FDF71BFA04F10900C0B200E067
:103E400009204FF6FF7100224AF20103BC5C614079
:103E5000002400BF0D4683EA5101EE0708BF690840
:103E6000072C04F10104F5D301328242EED13A1855
:103E70000B0A51704AF2B651518047F630423B541A
:103E800004300021C0F601020DF105037E5C03EB56
:103E900041043509555D06F00F0603F81150965D93
:103EA000013188426670F1D141000DF1050002F048
:103EB000A1F801203BB0F0BD052048F688010022A2
:103EC0000023FFF78DBF00002DE9F04FADF52F7DEA
:103ED00041F24A34C2F20004B4F800B0BBF11A0F48
:103EE000C0F09D8304A800F1080E0DF1630000F1FD
:103EF000090AACA841F2B0250430C2F200050DF168
:103F00005A094AF2B65C4AF201086FF001060290C3
:103F1000002000BF15F81020A2F13001CBB20A2B0F
:103F200011D3A2F14101C9B2052903D8A2F1370189
:103F300009E000BFA2F16101C9B206294FF0FF31CB
:103F400038BFA2F1570105EB40025378A3F13002CC
:103F5000D7B20A2F11D3A3F14102D2B2052A03D856
:103F6000A3F1370209E000BFA3F16102D2B2062A31
:103F70004FF0FF3238BFA3F15702CBB2FF3BD7B2AD
:103F800018BF0123FF3F18BF01273B40012B40F022
:103F90006E8342EA011109F8001001300928B9D1F5
:103FA000002B00F06483BDF85A0000BABCEB104F40
:103FB00040F0D1809DF86100412880F0588300F1E5
:103FC0000D01CDF804A0CAB21FFA8BFABAEB420F6A
:103FD000C0F0398352000092002200BF15F8127021
:103FE000A7F13003DEB20A2E11D3A7F14103DBB2F1
:103FF000052B03D8A7F1370309E000BFA7F1610340
:10400000DBB2062B4FF0FF3338BFA7F1570305EBA8
:1040100042077E78A6F13007FCB20A2C11D3A6F134
:104020004107FFB2052F03D8A6F1370709E000BF0B
:10403000A6F16107FFB2062F4FF0FF3738BFA6F198
:104040005707DEB2FF2E00F0F782FEB2FF2E00F01F
:10405000F38247EA03130DF16307BB540132914227
:10406000BCD1BDF8631009BABCEB114F40F0E4823B
:10407000BDF86510BDF8683009BA090CADF810102C
:104080009DF867109DF86A208DF812109DF86B104E
:104090001BBA1B0C402AADF814308DF816208DF891
:1040A000171000F2C982824208BF022940F0C48280
:1040B0000DF163001044B0F80B004BF2A56100BA9B
:1040C000B1EB104F40F0B88202F109000DF163012D
:1040D000095A002391FA91FC4FF6FF770DF1630125
:1040E000CE5C7740002600BF3C4688EA5707E107D0
:1040F00008BF6708072E06F10106F5D30133834296
:10410000ECD1674540F0988274461AB10199204677
:10411000FDF7ADF80394009C28462919AAEB040288
:10412000FDF7A5F8BDF81000ABEB04014FF6FF76E4
:1041300041F24A34DDF804A0B042C2F2000421800A
:1041400021D040F23401C2F20001098888421AD01D
:104150004AF2B65C0CE016FA8BF2A91C2846CDF8A0
:104160000CE0FDF784F84AF2B65CABF10200208067
:10417000B4F800B0DDF80CE0BBF1190F6FF00106E8
:104180003FF6C6AE4BE2FFF7C1F948B19DF8120009
:104190000128DDD1BDF8140040F203318842D7D1A7
:1041A0009DF8120001280DD0052840F02E82BDF8A0
:1041B0001410B14203D1052048F6880128E20128F5
:1041C00040F02382BDF81410B1F5407F2FDC039A34
:1041D000B1F5D17F80F26280A1F20110112800F2C6
:1041E0000481DFE810F01200120212025D012801C2
:1041F00040011202120212021202120212021202F2
:104200001202120212024B0132019DF81600002820
:1042100040F0FB8101F010FBBDF81410FF208DF879
:10422000B00002202CAA0123FFF7DAFD96E10398E3
:10423000B1F5806F4FDBB1F5A06F66DCA1F5806250
:10424000122A00F2E281DFE812F01300410153016B
:10425000E001E001E001E001E001E001E001E00156
:10426000E001E001E001E001E001E0013701490186
:104270009DF81600002840F0C881FFF7ABF9ACAFFD
:104280003846FFF7A1F9FFF7BFF90298FFF79CF94D
:10429000BDF8141002203A460823BBE1B1F5087FAF
:1042A0004BDD40F24120814200F38B8040F221201F
:1042B000814200F06A8140F24120814240F0A581B4
:1042C0009DF81600042840F0A0811046FFF776F90B
:1042D000FFF706FA68E140F20230814243DC40F227
:1042E0000130814200F00C8140F20230814240F006
:1042F0008C819DF81600002840F08781FFF70CF9AB
:1043000002F078F84AF2B65C32E740F2016081428E
:1043100045DC40F20150814200F0098140F2016029
:10432000814240F072819DF81600012840F06D81B5
:104330009DF81800FFF788F836E1B1F5D17F00F05D
:104340004C8140F20120814200F0388140F202208D
:10435000814240F05A819DF81600002840F05581B6
:10436000FFF75AF92FE140F20330814200F0D88084
:1043700040F2AA30814240F048819DF816000028A2
:1043800040F04381FF208DF8B00002202CAA0123C9
:10439000FFF726FD00F09AF94AF2B65CE8E640F233
:1043A0000260814200F0DF8040F20360814240F011
:1043B0002C819DF81600002840F02781FEF76EFF43
:1043C000F2E040F24220814200F0E58040F26120BC
:1043D000814240F01A819DF81600012840F01581B5
:1043E0009DF81800FFF736FADEE040F2A110814296
:1043F00040F00B819DF81600022840F00681BDF8C0
:10440000180000BA060C3046FFF764FC002800F0E4
:10441000FC80BDF81410FF208DF8B00002202CAAFB
:104420000123FFF7DDFC40F23400C2F200000680F9
:104430004AF2B65C9CE69DF81600042840F0E58040
:10444000069800BA00F048FBAFE09DF8160000287F
:1044500040F0DB8000F048F9BDF814108DF8B00290
:104460000220ACAAA8E09DF81600002840F0CD80FC
:1044700000F040F9BDF8141000BA19E09DF81600DC
:10448000002840F0C28040F23400C2F200000088F0
:10449000ACAA00BA000CADF8B00202200223B9E0C9
:1044A0009DF81600002840F0B0800220C0F2010004
:1044B000AC900220ACAA8EE09DF81610042940F0C2
:1044C000A480FFF77BF8FFF72FF96DE09DF8160049
:1044D000002840F09A80FFF77DF874E09DF81610F0
:1044E000042940F09280FFF769F8FFF76DF95BE06F
:1044F0009DF81600002840F08880FFF785F862E0FC
:104500009DF81600022840F080809DF818001028C1
:104510007BD29DF8191041EA0020FFF77DF943E0B6
:104520009DF81600002870D1FFF708F83DE09DF8CF
:104530001600002869D100F019FA002865D001F0B2
:104540007BF9BDF81410FF208DF8B00002202CAAD2
:104550000123FFF745FC142000F028FC00F004FACA
:104560004AF2B65C04E69DF8160000284DD12CAF47
:1045700038464FF40071FEF741FE3846FCF7A9FEBD
:1045800081B2384601F036FDE2E59DF81600E0BB49
:10459000FFF754F817E09DF81600042835D11046AF
:1045A000FFF70CF8FFF7E8F878B3BDF81410FF2018
:1045B0008DF8B00002202CAA01232BE09DF81600F4
:1045C00018BBFFF70FF8ACAF3846FEF7FDFFBDF89C
:1045D000141002203A4604231CE09DF8160001281E
:1045E00013D19DF81800FFF7B1FA70B1BDF814109F
:1045F000FF208DF8B00002202CAA0123FFF7F0FB6A
:1046000000F042F84AF2B65CB2E5FF204EF6EE61E9
:1046100000220023FFF7E4FB4AF2B65CA8E5FEF7B0
:1046200055FF68B32CAC2046FEF790FF022040F205
:10463000023122460C2321E041F24A310020C2F22D
:104640000001088015E015FA8BF010F8040C4228E0
:1046500016D10AEB050010F8031C362910D110F80A
:10466000021C41290CD110F8010C352808D100207A
:104670002080FF204EF6EE6100220023FFF7B0FB02
:104680000DF52F7DBDE8F08F80B5FFF7A9F9807893
:104690001138C0B203288FBF4FF4964047F6C0319F
:1046A000C0F6010151F82000BDE88040FEF7C6BC0D
:1046B0001138C0B203288FBF4FF4964047F6C0317F
:1046C000C0F6010151F820007047000080B50A20B3
:1046D000FEF7D0F947F6AC30C0F601001321BDE873
:1046E000804001F087BC000080B5FFF779F9807841
:1046F00080BD000080B500F0E3FD01F07BF943F2DE
:104700007432C2F2000212680023801A61F10001C3
:104710004FF47A72FCF77AFD43F27831C2F200016D
:104720000968084480BD00002DE9F04F89B004A855
:1047300001F092FC9DF81100010901EB810100F0EC
:104740000F0000EB410CACF10D0010F10C0F4FF01D
:104750000001C0F0F7809DF81200020902EB82020E
:1047600000F00F0000EB420BBBF1000F00F0EA80FD
:104770009DF810009DF81450010901EB810100F033
:104780000F0000EB41004FF4FA6151FA80F79DF8F9
:104790001610C4B20A099DF8150002EB820201F05E
:1047A0000F0147F6A03A01EB4206BCF1020FC0F63A
:1047B000010A21D145F62941CCF28F2107FB01F2F4
:1047C00045F6284E4FEAB203C0F28F2E73454DF2E4
:1047D0000B734FF000014FEA3212C0F2A30388BFFF
:1047E00001219A424FF01D030AD304F00302B2FAEA
:1047F00082F25209114003D10CEB0A0111F8013C7D
:104800003B2E4FF0000100F29D80020902EB820274
:1048100000F00F0000EB4209B9F13B0F00F292806B
:10482000280900EB800005F00F0202EB400017287A
:1048300000F288805B45C0F085804FF64E0548F257
:104840001F53CDE901700396002640F2B277CFF6F0
:10485000FF756FF01D01C5F2EB134FF4C8704FF0F8
:10486000640E14E04FEAD81202FB0052B2FA82F250
:104870005209002A40F26D1201F1010118BF4FF4F4
:10488000B772164401378C42A5F101050FD001F52E
:10489000FA629207A7FB0328E4D14FEA581202FB01
:1048A0001E1202F2B2721E32DCD00122E1E7BCF12C
:1048B000020F35D304F00300B0FA80F0410945F649
:1048C0002940019ACCF28F20424345F628474FEA0F
:1048D000B203C0F28F27BB424FF0000388BF012311
:1048E00019404DF20B734FEA3212C0F2A3039A4201
:1048F0004FF0000238BF0122039F00201143ACF1AA
:10490000010200BF431EB3FA83F35B0919420CBFD7
:104910001AF800301D23013082421E44F2D100E01B
:10492000039F0BEB0600013840F2A321029A484393
:104930004FF461615143C9EB091201EB8201394423
:1049400001EBC01143F27830C2F20000016000F0C8
:10495000B7FC01F04FF843F27431C2F20001086075
:1049600009B0BDE8F08F0000FDF716FD2DE9F04F0E
:10497000C1B041F2503A0026C2F2000AC0F6010668
:1049800048F220374CF2C3384CF23C3B41F200096C
:1049900041F20004504631464FF48052CEF6B857EB
:1049A000CAF2A558C5F6A52BC0F60509C0F6010444
:1049B000FCF75DFC01AD284631464FF48072FCF7F0
:1049C00056FC4FF200104FF204114FF2FC12CFF6DA
:1049D000FF70CFF6FF71CFF6FF72019B2058615830
:1049E000A6585B4506D1409A424503D1029AB2F1DE
:1049F000011F37D0584508BF464523D028464FF4FD
:104A00008071FCF75BFC4FF00110029000204FF02A
:104A1000FF31CDF804B00390CDE90649CDF800810F
:104A20002A5C5140082200BF0B4687EA5101DE078D
:104A300008BF5908013AF7D10130F828F0D1CE4328
:104A4000F8200EE0B1F1011FD8D1CDE9010140F20B
:104A5000081105F10800C0F60101F422FCF707FC7B
:104A6000FC202E5045F2AA51C5F2AA51002005F1B2
:104A7000080603914FF0FF31CDE90400CDE9064966
:104A80000A90CDF8008100BF2A5C5140082200BF87
:104A90000B4687EA5101DC0708BF5908013AF7D1F4
:104AA0000130F828F0D1C843DDE901453F9001A964
:104AB00050464FF48072FCF7DAFB0AF584703146F9
:104AC000F422CAE94045FCF7D2FBCAF8FC8141B0A8
:104AD000BDE8F04F01F07ABF2DE9F04F81B080467C
:104AE00044F20750CCF22E20A8FB00014FEA114EF1
:104AF00048F21F5340F2B272C5F2EB134FF4C8767E
:104B000064257146A2FB0304E70990074FEA541499
:104B100006D104FB05F0904202D0012006E000BF60
:104B200007FB06F0801AB0FA80F04009002840F236
:104B30006D1018BF4FF4B770814202D3091A0132C9
:104B4000E0E7642302F003006343B0FA80F09B1AAD
:104B50004FEA501018BF012318404FF4C8737B432D
:104B60009B1AB3FA83F35B0947F6A03543EA0007C3
:104B700001236FF00106C0F6010500BF56FA83F06D
:104B8000B0FA80F04009074206BF55FA83F010F8EA
:104B9000014C1D24A14202D3091B0133EEE744F668
:104BA00025100EF10309C2F29240A9FB000C40F25D
:104BB000A3200EFB00F0A8EBC01640F2E810C2F2F2
:104BC00000000027C0E90077C0E90277076140F2E2
:104BD000D807C2F200073D684BF2C537C9F2A217E9
:104BE000058140F2DC05A6FB0747C2F200052C68F0
:104BF0004FEAD72A4FF461650AFB156B48F6890521
:104C0000C8F68805ABFB055E448102F13004E5B2CD
:104C1000CD225543ED0A05EB8506A4EB460444EA94
:104C200005140470DCB25443E40A04EB8405A3EBDE
:104C3000450343EA041301314370CBB25343DB0A0B
:104C400003EB8304A1EB440141EA03118170ACEB57
:104C5000CC0149440131C170C7F3C7215143C90A8E
:104C600001EB8103AAEB430343EA011101714FEA0F
:104C70005E11CBB25343DB0A03EB8307A1EB47077B
:104C8000C1EB011147EA0313ABEB81014371CBB2D6
:104C90005A43D20A02EB8203A1EB430141EA02111B
:104CA000817101F01BFA42F65000C4F2000043F299
:104CB000F021016043F27830C2F20000C0F80080B9
:104CC00000F0FEFA00F096FE43F27431C2F20001E9
:104CD000086001B0BDE8F08F012904D051B9032A62
:104CE00008D2082103E0022A88BF7047142101EB93
:104CF00082010B507047000047F20041C4F20001EE
:104D0000884218BF704780B540F61D0001F058F981
:104D100040F61D00BDE8804001F042B929B10129EB
:104D200018BF70476FF4803101E06FF00101026835
:104D3000114001607047000029B1012918BF704778
:104D40006FF0805101E06FF4805102681140016002
:104D50007047000029B1012918BF70474FF4803116
:104D600000E00121026811430160704729B1012967
:104D700018BF70476FF4802101E06FF004010268F2
:104D80001140016070470000012906D0002918BFBA
:104D90007047016821F0C00103E00168120421F4AA
:104DA00040010160016811430160704740F2B401A5
:104DB000C2F20001086000BF08680028FCD17047FB
:104DC00040F2B400C2F200000168002908BF704739
:104DD000016801390160704701EB410100EBC1003E
:104DE000016921F0010101617047000001EB4101FF
:104DF00000EBC100016941F0010101617047000051
:104E000001EB410100EBC100016921F0606141EA61
:104E1000426101617047000001EB410100EBC100FC
:104E2000016921F4807101617047000001EB4101CB
:104E300000EBC100016941F480710161704700001D
:104E400001EB410200EBC20213694FF03D0C23F06D
:104E5000010313610023136153619361D3611362F2
:104E6000212353620A1F28BFD1B201EB410301F095
:104E700002014FF00C024FEA410138BF082201EB5A
:104E8000430113580CFA01F1194311507047000007
:104E90000B1F38BF0B46D9B24FEA410151FA83F1DB
:104EA00003F002034FF00C0C4FEA430338BF4FF0FE
:104EB000080C03EB41015CF8003002FA01F11943E0
:104EC0004CF80010704700000B1F34BF0B46043035
:104ED000D9B2490051FA83F103F002035B00006884
:104EE00003EB410102FA01F1084018BF01207047AD
:104EF00001EB410C2021002A08BF1C21084440F886
:104F00003C30704780B501EB410100EBC100416AC4
:104F100048F23F7321F0040141621168CFF6FC733F
:104F200081619168C161D16941610169D2F818E07C
:104F300001EA030C116A136941EA0C0141EA830199
:104F400041EA0E011943016153680169012B06D042
:104F5000002B14BF41F4004141F4007101E021F441
:104F600000710161D1680369002923F4806308BFDF
:104F700003F58063036151690269002922F480729C
:104F800008BF02F58072026180BD0000002101228D
:104F9000C0E90012C0E90212C0E90412C0E906111A
:104FA0000162704701EB410100EBC10042617047B3
:104FB00001EB410100EBC1004069704743F6084C2A
:104FC000C4F2010C5CF8083C012923EA00034CF808
:104FD000083C5CF8043C23EA00034CF8043CDCF891
:104FE000003023EA0003CCF80030DCF8043023EA78
:104FF0000003CCF8043019D021B95CF8081C014337
:105000004CF8081C022A18D0012A6FEA000118D0B7
:10501000002A18BF7047DCF800201043CCF80000CD
:10502000DCF804000840CCF8040070475CF8041C6D
:1050300001434CF8041C022AE6D1DCF800100143BD
:1050400002E0DCF800201140CCF80010DCF804107D
:105050000843CCF80400704743F61441C4F2010140
:105060000860704743F61441C4F201010968084022
:1050700018BF0120704700002DE9F04F81B02DEDE1
:10508000048B94B08246D0F800C044F20750CCF2B2
:105090002E20ACFB00024FEA124E48F21F5506913B
:1050A00040F2B273C5F2EB154FF4C877642671462F
:1050B000A3FB05025009704303F00304B4FA84F41F
:1050C000C01A4FEA541418BF012004404FEAD2100E
:1050D00002D0012206E000BF00FB07F2D21AB2FAAA
:1050E00082F25209002A40F26D1218BF4FF4B772D3
:1050F000914202D3891A0133DAE74FF4C872504360
:10510000C01AB0FA80F0400940EA040600275AA409
:105110007A1EB2FA82F2E05D5209324010448142B6
:1051200007D301370C2FA1EB0001F1D14FF00D088F
:1051300001E007F1010840F2A3200EFB00F04BF262
:10514000C532ACEBC010C9F2A212A0FB0226F20AD3
:105150004FF4616602FB160648F68904C8F6880417
:10516000A6FB0467A0FB04646609360101317F09D0
:10517000A6EB5416A0EB8606CDE90081CDE9022707
:1051800040A20FA81421049601F026FC9AED020A11
:105190009FED458AB5EE400AB1EE401AF1EE10FAE5
:1051A000B8BFB0EE410A20EE080AB6EE009A30EE23
:1051B000090ABDEEC00A10EE100A50FB05F14FEAD5
:1051C000611247F64E4702EBD1744FF0640847F680
:1051D000434BC0F6010704FB1806C0F6010B0DF1A6
:1051E0002C0947F6414C3B4648464FF010015A46C1
:1051F000C0F6010CB8BF6346CDE9004601F0ECFBF8
:105200009AED030AB5EE400AB1EE401AF1EE10FA3B
:10521000B8BFB0EE410A20EE080A30EE090ABDEE32
:10522000C00A10EE100A50FB05F14FEA611202EBC2
:10523000D17606FB180447F64140C0F6010007ADE1
:10524000B8BF0746284610215A463B46CDE90064C0
:1052500001F0C2FB9AF8040014A2CDE900090698F7
:1052600060210FAB029501F0B7FB14B0BDEC048BCD
:1052700001B0BDE8F08F00BF1F1C1F1E1F1E1F1FA7
:105280001E1F1E1F2530346C752D2530326C752D78
:105290002530326C75202530326C753A2530326CF1
:1052A000753A2530326C75000000C8422573207CA9
:1052B0002043482575207C202573207C2025730001
:1052C0002DE9F041EFF3108672B600F0FBFB40F2DF
:1052D0008807C2F200073A7E04460D4672B100F01C
:1052E0003DFC48B300F0EEFB04460D4600F0FCFB2D
:1052F00000196941441C41F100051DE0EFF31088DD
:1053000072B600F02BFCA8B100F0D4FB00F0ECFB6F
:10531000EFF3108272B6D7E90035C0186941013049
:1053200041F10001C7E9000182F3108800F0CAFBD7
:1053300004460D4688F31088D7E90001D7E9022317
:1053400000196941821A71EB030205DAD7E90201FB
:1053500086F31088BDE8F081C7E9020186F3108862
:10536000BDE8F081F0B5D0F820E0D0F824C00023EB
:105370000F27002505E000BF0135082D03F10403C8
:105380000CD022FA05F6F607F6D007FA03F62EEA55
:10539000060601FA03F446EA040EEDE708230024AA
:1053A0000F2504E00133102B04F104040CD022FA81
:1053B00003F6F607F6D005FA04F62CEA060701FA1A
:1053C00004F647EA060CEDE7C0F820E0C0F824C078
:1053D000F0BD000081627047816170472DE9F041A6
:1053E000D0F800E0D0F80CC000244FF003080026ED
:1053F00005E000BF0136102E04F1020412D023FA9A
:1054000006F7FF07F6D008FA04F72EEA070E01FAAE
:1054100004F54EEA050E2CEA070702FA04F547EAFE
:10542000050CE7E7C0F800E0C0F80CC0BDE8F0816B
:105430000129416814BF994319434160B0B5D0F8C0
:1054400008C000214FF0030E002404E00134102CAA
:1054500001F102010CD023FA04F5ED07F6D00EFAA3
:1054600001F52CEA050C02FA01F54CEA050CEDE712
:10547000C0F808C0B0BD0000026822F48062114389
:1054800001607047F0B581B00446022017460D4612
:1054900000F018FC4DF68361C4F21B31A0FB011231
:1054A000910C48F2FF62C0F2933290420A4688BFE4
:1054B0003C22636848F2A066C0F2010623F03F0375
:1054C000B54243EA0203636007D844F2C042C0F227
:1054D000843290422BD33C2131E041F68021C0F24E
:1054E00006018D4237D84FF49671514348F6381271
:1054F000C0F24102A1FB0212511C2162E169192292
:1055000021F48041002F18BF01F5804108BF03221C
:10551000E161E1696A4341F40041B0FBF2F0E1610D
:10552000E169020508BF41F00101084312E048F2B9
:105530007F42C0F21E0290428CBF013102212162E3
:105540006900B0FBF1F0042898BF0420E1696FF313
:105550001F300843E06101B0F0BD000010B545F216
:105560000041C4F20001884212D045F60041C4F265
:105570000001884209D045F60001C4F200018842CA
:1055800018BF10BD40F6160404E040F6170401E011
:1055900040F61504204600F013FD2046BDE81040FB
:1055A00000F0FEBC016821F00101016070470000BD
:1055B000426822F40062114341607047016841F083
:1055C000010101607047000040F20152914202D196
:1055D00041698069704701F01F0289094FF0010C91
:1055E0000B580CFA02F223EA02020A50704700003C
:1055F0008A09105801F01F01C84000F001007047EF
:1056000021F00101023218BF013101617047000031
:10561000D0F800C06FF39F232CF0020C41EA0C017C
:10562000016043EA0201816070470000016841F4B3
:105630008071016070470000016841F400710160F1
:105640007047000010B540F62844C4F20204FFF78A
:1056500037FE00F0CFF940F2BC02C2F2000211782E
:10566000002940F2C001C2F2000114D14FF480635E
:1056700023604FF4006323604FF4805323604FF4A2
:10568000005323604FF4804323604FF400432360B2
:105690000123086013700A68821AB2F57A7F22BF6C
:1056A0004FF4806262600860FDF730FF00284FF41D
:1056B000006018BF103C206010BD00004EF608507E
:1056C00041F20001CEF20000C0F60101016000F0DD
:1056D000AFFF002000F0CAF9FDF722FBFDF75AF9F1
:1056E000FDF768FBFEF788F9FEF7FEFFFEF7E0FF27
:1056F000FDF756FDFEF710FBFEF7DEFBFDF730FA77
:10570000FDF7B2F8FDF786F9FDF7DCFBFCF7F8F9D9
:10571000FDF79CFFFDF71CFEFFF706F800F03AFED0
:1057200000F040FEFCE70000002848BF704700F092
:105730001F01012202FA01F11C2202EAD0004EF2FE
:105740008012CEF200028150BFF34F8FBFF36F8FF4
:1057500070470000B0B54EF60C5ECEF2000EDEF8DB
:1057600000304FF0FF3503F4E063A3F54073B3F569
:10577000A06F22BF40F20053C0F2FA53CEF80030BF
:10578000DEF800304EF2001CC3F3022383F007045E
:10579000042C28BF0424033B05FA04F438BF00237B
:1057A000A143994005FA03F39A4300F00F037344B1
:1057B000CEF2000C11430833B0F1FF3F4FEA011164
:1057C00000EB0C02C8BF02F540730028197048BFF7
:1057D000B0BD00F01F01012202FA01F1C0F3421036
:1057E0004CF82010B0BD00004FF68072C1F6FF7279
:1057F000114008434EF60851CEF200010860BFF395
:105800004F8F704781B0B0B5ADF5017D01AD0C464D
:10581000859385AB28464FF40071009301F0F6F8AC
:10582000002021462A461023FCF706FA0DF5017DDB
:10583000BDE8B04001B0704702A200200221FFF78E
:10584000E1BF00BF426F6F746C6F616465720000EE
:10585000B0B5FDF75BFE40F2C605C2F2000529783F
:10586000044649B9FCF724F90DA20EA3002000213B
:10587000FFF7C8FF0120287040F22005C2F20005A2
:105880002878A04208BFB0BD09A00CA2002C18BF08
:10589000024600200221FFF7B5FF2C70B0BD00BF0B
:1058A0002573000032303236333335323232000065
:1058B0004175746F53616D706C65000049444C45CF
:1058C0002020202020200000002804BF0020704756
:1058D0002DE9F0478AB042F2603AC2F2000A002194
:1058E000064648F2203745F24D2844F64359C0F6A3
:1058F000010150464FF48052CEF6B857C5F2410828
:10590000C4F24939FBF7B3FC01AD28462421FF223C
:10591000FBF7CDFC4FF0011002904FCE0DF10C0CB7
:105920008CE84F004FF0FF300021CDF80490CDF807
:10593000248000BF6A5C5040082200BF034687EA0B
:105940005000DE0708BF5808013AF7D101311C2981
:10595000F0D1C0430890DDE901CEDDE90336DDE991
:1059600005540999079ACAF82018CAF800C8CAF855
:1059700004E8CAF80838CAF80C68CAF81058CAF817
:105980001448CAF81828CAF81C0801F01AF818B305
:1059900040F60000C0F60100016849451CD141688D
:1059A000B1F1011F18D1016A414515D1C1694FF00C
:1059B000FF320023C65C7240082600BF154687EA06
:1059C0005202EC0708BF6A08013EF7D101331C2BD5
:1059D000F0D15140013103D000200AB0BDE8F0877A
:1059E00001A92422FBF77CFCB0FA80F040090AB040
:1059F000BDE8F08780B540F28802C2F20002526929
:105A00000023FBF703FC80BD70B540F2880440F230
:105A1000B802C2F20004C2F2000261691368A1FB7D
:105A200000105B2BACBF12685A22D317561A834161
:105A300018DA8D1A60EBE276FFF742FC2D184E4122
:105A4000FFF73EFC421B71EB0602A8BF70BD281A8F
:105A5000626966EB01010023FBF7D8FB00F004F854
:105A60000028EDD170BD00000120704770B540F2F4
:105A70008806EFF3108572B6C2F20006307600F0A9
:105A80003BF8044600F016F885F3108800F01CFE81
:105A90000020C6E90000C6E90200FCF7ABFC204686
:105AA00070BD00004EF21800CEF20000002101602F
:105AB000704700004EF60450CEF200004FF0007127
:105AC000016070474EF21400CEF200000168406899
:105AD000081A4FF0000161F10001704740F2040024
:105AE000C2F20000006870474EF21400CEF20000CF
:105AF0000068002170470000C0B94EF21001CEF2DC
:105B0000000100226FF07F43EFF3108072B60A604D
:105B10004B604EF60453CEF20003DA778A60072218
:105B20000A604FF00071196080F3108801207047FF
:105B300080B5FFF7D9FF40F2880CEFF3108E72B6F4
:105B4000C2F2000CDCE90032C0185141013041F1D1
:105B50000001CCE900018EF3108880BD4EF60450A0
:105B6000CEF200000068C0F3806070474EF2100073
:105B7000CEF20000016821F00101016070470000D1
:105B800047F20000C4F20000016841F48071016036
:105B90007047000020B1012818BF7047082000E0BE
:105BA000042047F20001C4F200010A6810430860B3
:105BB00070470000B0B547F2000CC4F2000CDCF8EE
:105BC00000E04FF2FC33CFF6F37303EA0E03CCF898
:105BD0000030DCF80030B1F5402F43EA0003CCF888
:105BE00000300DD1DCF8001040F20043C0F20C038D
:105BF000002808BF03F5806341EA0300CCF80000E9
:105C00004EF21000CEF20000D0F8001D40F2C80C99
:105C100041F00401C0F8001D0168C2F2000CCCF88C
:105C20000010D0F8F01040F2CC0EC2F2000ECEF808
:105C30000010D0F8F43040F2D001C2F200010B6045
:105C4000D0F8F84040F2D403C2F200031C600468AC
:105C50000425C0F201052C4004604FF63104CFF654
:105C60007F74C0F870414FF6FF04CBF6FF74C0F8A4
:105C700074416FF48054C0F87841002A0FBF30BFE0
:105C800040BF20BF20BFDCF800200260DEF800200B
:105C9000C0F8F0200968C0F8F4101968C0F8F810CE
:105CA000D0F8001D21F00401C0F8001DB0BD0000B7
:105CB00043F67400C4F20200016841F08071016093
:105CC0007047000010B543F60402C4F202025368A4
:105CD0000146C3F3810342F20040022BC0F2F400FC
:105CE00006D0012B1FD147F64000C0F27D101AE00C
:105CF000D2F800C013680CF03F0CC3F3881E136881
:105D00001468C3F30143640247F64004C0F27D14F3
:105D100058BF0446B4FBFCF4022000EB430004FB34
:105D20000EF3B3FBF0F0536811A4C3F30313E35C69
:105D3000546847F6D03CC4F38224C0F6010C1CF82A
:105D400004E05268032911D820FA03F3DFE801F0D8
:105D50000D020407184610BD23FA0EF010BDC2F361
:105D600042301CF8000023FA00F010BD002010BDE6
:105D700000000000000000000102030406070809FB
:105D800043F600028109C4F20202895800F01F00A4
:105D900021FA00F000F001007047000043F6000314
:105DA00000F01F018009C4F202034FF0010CC25839
:105DB0000CFA01F11143C150704700000146B0F5E3
:105DC000E05F4FF0000029DA1C2900F2A680DFE82E
:105DD00001F00FA4A4A4A4A4A4A4A4A4A4A4A4A46F
:105DE000A4A477A4A4A4A4A4A4A45FA447A48D00FD
:105DF00043F6000C40F2FF40C4F2020C002200BF48
:105E0000DCF80010013842F10003890701D4002BAF
:105E1000F6D1DCF80000C0F3400070477ED0B1F549
:105E2000E85F00F0958043F21002914218BF70477E
:105E300043F6000C4FF6FE71C4F2020CC0F20F01E3
:105E4000002200BFDCF8C000013942F100038003EA
:105E500001D4002BF6D1DCF8C000C0F340407047FD
:105E600043F6000C4FF6FE71C4F2020CC0F20F01B3
:105E7000002200BFDCF80000013942F100030001FC
:105E800001D4002BF6D1DCF80000C0F3C0607047ED
:105E900043F6000C4FF6FE71C4F2020CC0F20F0183
:105EA000002200BFDCF80000013942F1000380014C
:105EB00001D4002BF6D1DCF80000C0F3406070473D
:105EC00043F6000C4FF6FE70C4F2020C002200BF35
:105ED000DCF80010013842F10003890301D4002BE3
:105EE000F6D1DCF80000C0F34040704743F6000CE8
:105EF0004FF6FE71C4F2020CC0F20F01002200BF87
:105F0000DCF80000013942F10003800001D4002BCD
:105F1000F6D1DCF80000C0F3407070474FF6FE7118
:105F200043F6000CC0F20F01C4F2020C01F17F61D4
:105F3000002200BFDCF87000013942F10003800745
:105F400001D4002BF6D1DCF87000C0F3400070479C
:105F500043F6000C4FF6FE71C4F2020CC0F20F01C2
:105F6000002200BFDCF87400013942F10003800711
:105F700001D4002BF6D1DCF87400C0F34000704768
:105F800043F6000300F01F018009C4F202034FF042
:105F9000010CC2580CFA01F11143C15070470000C6
:105FA00043F6000300F01F018009C4F202034FF022
:105FB000010CC2580CFA01F122EA0101C1507047EC
:105FC00043F6000300F01F018009C4F202034FF002
:105FD000010CC2580CFA01F11143C1507047000086
:105FE00043F67001C4F202010A6822F440721043C1
:105FF00008607047002808BF70472DE9F0410E4641
:1060000031B341F2180844F200450446C4F20208D4
:10601000C4F200054FF480700027C8F8000000BFEC
:10602000E15D284600F00CFC2846072100F086FCC4
:106030000028F9D00137B742F2D100BF2846062127
:1060400000F07CFC0028F9D04FF48070C8F81000F4
:10605000BDE8F0417047000080B542F6000CC4F284
:10606000000CDCF800E0DCF80430DCF810101A0C4E
:10607000DCF808C00270C3F30422427003F03F0250
:106080008270C3F34232C270CEF305420271CEF386
:10609000062242710EF07F028271C1F306426FF355
:1060A000DF31028141810EF480010CF04002C0E931
:1060B000031280BD42F60C01C4F200010A6822EA14
:1060C000000008607047000042F60C01C4F20001B5
:1060D0000968084018BF0120704700002DE9F0430F
:1060E00082B042F60C02C4F20002CA2190F800808D
:1060F00090F801E090F802C090F80390C568037929
:10610000477986799161532191614FF480410091E3
:106110001168490610D4116841F08001116000BF78
:106120001168009C013C009402D011F04004F7D0AB
:10613000C1F3801119B951E0012100294ED003F0BB
:106140003F0145EA014107F07F0341EA032106F0E0
:106150007F0319434FEA084369F34F330EF01F07DB
:1061600043EA07230CF03F073B44478906896FF356
:10617000DF3766F31647576042F80C1C42F8083CBC
:1061800052F8041C21F0400142F8041C006952F846
:10619000041C084342F8040C106820F080001060D2
:1061A0004FF40040019052F8040C800615D4CA2028
:1061B000906153209061106820F02000106000BFB3
:1061C000106801990139019102D010F02001F7D037
:1061D000C0F34011FF20906100E00121FF23084639
:1061E000936102B0BDE8F08342F62401C4F20001DD
:1061F000CA220A6053220A60042251F81C3C62EA57
:1062000000021A4041F81C2C6FF00402CB6962EACC
:1062100000001840C861FF200860704742F6240162
:10622000C4F20001CA220A6053220A6051F81C2CF1
:1062300020F004031A4341F81C2CCA6900F0040042
:106240001043C861FF2008607047000081B042F62B
:106250000C014FF40040C4F20001009051F8040C0E
:10626000800642BF012001B07047CA2088615320D8
:106270008861086820F02000086000BF0868009A64
:10628000013A009202D010F02002F7D0FF22C0F3B2
:1062900040108A6101B0704740F2E810C2F200007D
:1062A000FFF7DABE81B042F608014FF48042C4F233
:1062B00000010092CA22CA615322CA614A68009B47
:1062C000013B009302D012F00403F7D0520701D42F
:1062D000002007E00A6822F007020A600A681043FB
:1062E00008600120FF22CA6101B0704781B042F608
:1062F00024014FF48040C4F200010090CA200860DD
:106300005320086051F81C0C20F4806041F81C0CEC
:1063100051F8180C009A013A009202D010F00402D1
:10632000F6D0FF22C0F380000A6001B07047000081
:1063300042F62400C4F20000CA210160532101602A
:1063400050F81C1C41F4806140F81C1CFF210160C6
:106350007047000081B042F624014FF48042C4F23D
:1063600000010092CA220A6053220A6051F8182CD8
:10637000009B013B009302D012F00403F6D05207B9
:106380004FF0FF0246BF41F8100C012000200A60C8
:1063900001B0704743F29430C2F200000521017051
:1063A0007047000070B543F29434C2F200042078C4
:1063B000002808BF70BD40F24000C2F2000000F1AA
:1063C0000805002606E000BF20780136864205F168
:1063D0000C050DD2FEF774FFFFF70CFB55E9011217
:1063E00011448142F0D855F8081C28608847EBE733
:1063F00070BD000010B584B001AC2046FDF7A6F8D2
:10640000022040F2023122460C23FDF7E9FC04B0E1
:1064100010BD0000016821F04001016070470000DC
:1064200042686FF00103002908BF6FF0020302EA1F
:10643000030141607047000042680123002908BF42
:10644000022342EA0301416070470000016841F005
:1064500040010160704700002DE9F04389B046F229
:106460000045C4F20205A5F5A848064640464FF48B
:106470008061FEF7AFFF43F28834C2F2000470BAC5
:106480002080284601210126FEF7DAFCA5F596308A
:10649000A0F57D77402006900220019605966E4675
:1064A000029400244FF40039079028460121324617
:1064B00000970494CDF820900394FEF723FD28461E
:1064C00001210422FEF79CFC28460021FEF7B8FCBF
:1064D000009743F27C37C2F200072846002132467B
:1064E00002970694CDF82090FEF70CFD2846002177
:1064F0000422FEF785FC28460021FEF777FC28469B
:106500000121FEF773FCA5F5983630460121FFF70F
:1065100093FF30460021FFF78FFF00BF2846002180
:106520002022FEF7D1FC0028F8D030460121FFF7E9
:1065300077FF30460021FFF773FF28460021FEF762
:106540004BFC28460121FEF747FC2846002120226B
:10655000FEF79EFC284601212022FEF799FC388890
:106560004FF4806100BA050C4046FEF735FF28461F
:1065700009B0BDE8F083000070B50268D1E902E41B
:1065800002F4415CD1E90032D1E9045643EA0C033C
:106590001A4342EA0E02224389692A4332431143D5
:1065A0000160C16921F40061C16170BD8A08032ADC
:1065B00088BF70470C2303EA81010F238B4000FA48
:1065C00001FC01EB8200D943DFE802F002260E1A3B
:1065D00043F60800C4F2010002681140016001683E
:1065E00041EA0C010160704743F60800C4F2010063
:1065F000826811408160816841EA0C0181607047C6
:1066000043F60800C4F20100C2681140C160C168CD
:1066100041EA0C01C160704743F60800C4F2010072
:10662000426811404160416841EA0C014160704795
:1066300040F20400C2F20000006844F6D351C1F2F7
:106640006201A0FB01014FF0FF3000EB9110B0F1AF
:10665000807F11D24EF21001CEF2000148604EF65A
:106660002350CEF20000F0220270002207238A603D
:106670000B600270704700BFFEE70000016821F068
:10668000010101607047000070B540F2E005C2F200
:106690000005287898B140F2E416C2F2000640F2F4
:1066A000E4043188C2F200042046FDF745FB204691
:1066B0004FF48071FAF702FE002030802870BDE8A8
:1066C0007040FDF701BC000070B5FFF70DFAFFF751
:1066D00005FA44F6D351C1F26201A0FB011244F263
:1066E0004021C0F20F01884240F2880100EE100AFA
:1066F0004FF00000C2F200019FED1D1A38BF0120CB
:106700004876B8EE400A487E80EE012A81EE000A03
:106710009FED181A002808BFB0EE420A20EE010AC9
:10672000B6EE001A30EE010ABDEEC00A900940F242
:10673000B806002381ED040A4861EFF3108572B6B4
:10674000C2F200063360FEF7BBFDBFF34F8FBFF30D
:106750006F8F00BFBFF34F8F0446BFF36F8FFEF7FD
:10676000AFFD31682144401A306085F3108870BD58
:106770000024744900008047B0B5044647F2FF701A
:10678000C4F200000D4684424FF000000EDC44F6D7
:10679000FF31C4F200018C4217DC44F20041C4F224
:1067A00000018C421DD044F6000116E040F6FF7156
:1067B000C4F201018C422FDC47F60001C4F2000153
:1067C0008C420ED047F6004107E044F60041C4F287
:1067D00000018C4205D045F20001C4F200018C4258
:1067E00003D102210846FFF76DFAE168090406D4D7
:1067F00000EB5500B0FBF5F080B2A060B0BD4000EA
:1068000000EB5500B0FBF5F04FF6F0710140C0F31E
:1068100042000844A060B0BD41F20001C4F2010191
:106820008C424FF00301DDD041F20042C4F201027C
:106830009442D7D0D9E7000040686FF35F207047DB
:106840006FF35F214160704710B547F2FF71C4F2EA
:106850000001884214DC44F6FF31C4F20001884292
:1068600024DC44F20041C4F2000188423CD044F6EA
:106870000001C4F20001884249D140F612043EE012
:1068800040F6FF71C4F2010188421EDC47F60001A8
:10689000C4F2000188422AD047F60041C4F2000148
:1068A000884218BF10BD40F61F0428E044F600419E
:1068B000C4F2000188421DD045F20001C4F200017B
:1068C000884224D140F6140419E041F20001C4F2D8
:1068D0000101884211D041F20041C4F20101884215
:1068E00015D140F605140AE040F6110407E040F621
:1068F0001E0404E040F6130401E040F604142046B0
:10690000FFF75EFB2046BDE81040FFF749BB10BD16
:10691000C16821F40051C16070470000426901F074
:10692000400122F0400242614269114341617047D7
:10693000C16841F40051C160704700008A091058D5
:1069400001F01F01C84000F00100704701F01F0274
:1069500089094FF0010C0B580CFA02F223EA0202EB
:106960000A50704701F01F0289094FF0010C0B58C3
:106970000CFA02F21A430A5070470000C1F3891260
:1069800052F800C08A0D105801F01F03C1F30441F2
:10699000C8402CFA03F1084000F0010070470000E5
:1069A000C26822F004021143C1607047C26822F03D
:1069B00008021143C160704745F2994CC2F2000CC5
:1069C000604745F24D5CC2F2000C604745F2016C35
:1069D000C2F2000C604700000FB47CB50C0009AD9A
:1069E00001D0611E00E00021CDE90001064B6A469E
:1069F0002946089800F018F9002C02D0009A0021CE
:106A000011707CBC5DF814FB577301087CB50C0059
:106A10001D461646014601D0601E00E00020CDE96B
:106A20000010064B6A462946304600F0FDF8002C5F
:106A300002D0009A002111707CBD0000577301083C
:106A400010B52DED028BB1EEC08A18EE100A20F0C1
:106A50000040C0F1FF40C00F0AD010EE100A20F035
:106A60000040C0F1FF40C00F04BF012000F014F847
:106A7000B0EE480ABDEC028B10BD02E008C8121F40
:106A800008C1002AFAD170477047002001E001C117
:106A9000121F002AFBD170470149086070470000AF
:106AA000000000202DE9FF5F82B00021DDE9043005
:106AB000020DDDF840B0034318D044F61050A2F2A6
:106AC000FF3242431514119801281FD0A5EB0B008B
:106AD000401C5FEA000A4FF000064E4FDFF8389185
